:100000000C9434000C9451000C9451000C94510049
:100010000C9451000C9451000C9451000C9451001C
:100020000C9451000C9451000C9451000C9451000C
:100030000C9451000C9451000C9453000C945100FA
:100040000C9451000C9451000C9451000C945100EC
:100050000C9451000C9451000C9451000C945100DC
:100060000C94C6000C94510011241FBECFEFD8E0B1
:10007000DEBFCDBF11E0A0E0B1E0E4E0F5E002C0FA
:1000800005900D92A230B107D9F711E0A2E0B1E0DE
:1000900001C01D92AD30B107E1F70E94E0010C9460
:1000A00080020C9400001F920F920FB60F92112441
:1000B0008F9381E0809302018F910F900FBE0F907C
:1000C0001F901895CF93DF931F92CDB7DEB789832A
:1000D0000E949D0089810F90DF91CF9108958093B8
:1000E000BA008FEF8093BB0084E08093BC0008953A
:1000F0008091BC00817008958091BC0080FDFCCF90
:100100008091000108952091BC0020FDFCCF6093F8
:100110000501FC0186E091E0DC012A2F281B26174F
:1001200018F421912D93F9CF1092030188EF809359
:10013000000185EC8093BC0008958091BC0080FD97
:10014000FCCF1092030188EF8093000185EC80932F
:10015000BC0008952091BC0020FDFCCF209103013C
:1001600020FF10C026E031E0FC01D9018A2F821B5C
:10017000861718F48D918193F9CF809103018D7FBB
:100180008093030180910301817008951F920F9263
:100190000FB60F9211248F939F93EF93FF9380914B
:1001A000B9008039E1F138F4803761F18038B9F174
:1001B000803669F147C0883A51F020F4803A09F45A
:1001C00045C040C0883B29F0803C81F03BC0109284
:1001D0000401E091040181E08E0F80930401F0E0BE
:1001E000EA5FFE4F80818093BB002AC0909104019A
:1001F00080910501981326C080910301816080934E
:10020000030124C0809103018460809303018091E5
:1002100003018260809303011092040111C0E091F8
:10022000040181E08E0F809304018091BB00F0E017
:10023000EA5FFE4F80838091030181608093030118
:1002400085EC05C08091B9008093000184E0809323
:10025000BC00FF91EF919F918F910F900FBE0F9077
:100260001F90189584B1837C84B984B18C6284B961
:1002700085E58CBD81E08DBD08951CBC089530E1FD
:1002800020E080FD2F5F969587953150D1F7822F22
:10029000817008956FEF7FE30E94580290930B01E5
:1002A00080930A01089580910A0190910B010895AD
:1002B00080910C0108958EBD0DB407FEFDCF8EB563
:1002C0000895CF93C82F2A98892F0E945B018C2F05
:1002D0000E945B012A9A2A988FEF0E945B01C82F27
:1002E0008FEF0E945B012A9A2C2F30E0322F2227B9
:1002F000282BC9019F73CF9108958FEF9FE30C9432
:1003000061010E947D0120910A0130910B01821B45
:10031000930B811520E2920714F08F5F9F4308959D
:100320008DEF9FE30C9461010E949001089581E09C
:1003300090E00C946101EF92FF920F931F93CF9383
:10034000DF937C018B010E943F01C82FD0E0DD27A5
:10035000C695D795CC27CE29DF292A988D2F0E94C4
:100360005B018C2F0E945B012A9AC8010E943F0109
:10037000C82FD0E0DD27C695D795CC27C02BD12B31
:100380002A988D2F0E945B018C2F0E945B012A9A74
:100390002A988FEF0E945B01C82F8FEF0E945B01AC
:1003A0002A9AC1952C2F30E0322F2227282BC90101
:1003B0009F73DF91CF911F910F91FF90EF90089560
:1003C000CF93DF9300D000D0CDB7DEB78AB1837F63
:1003D0008AB989B199B184709870892B8061880F2E
:1003E0000E946F000E94320184B5826084BD89EF53
:1003F00087BD82E080936E0085B5836085BD78946B
:1004000019821A8264E0CE0101960E948300E12CD9
:10041000F12C00E010E0C12CD12C80910201882346
:10042000A9F0109202010E947D019C012C193D0946
:10043000220F331F220F331F3595279535952795AA
:10044000020F131F2FEFE21AF20A6C010E947800CC
:100450008111E3CF8091030180FF25C00E947800C5
:100460008111DBCFC801B7010E946C029B01AB0177
:10047000662757FD6095762F7983CB01BB2797FDC3
:10048000B095AB2F8A835B832C8364E0CE01019609
:100490000E9483008091030180FFBFCFE12CF12CEB
:1004A00000E010E0BACF0E947C000E949D00B5CF12
:1004B000AA1BBB1B51E107C0AA1FBB1FA617B7078A
:1004C00010F0A61BB70B881F991F5A95A9F78095A6
:1004D0009095BC01CD01089597FB072E16F400946A
:1004E00007D077FD09D00E94580207FC05D03EF4E2
:1004F000909581959F4F0895709561957F4F0895D0
:04050000F894FFCF9D
:02050400F800FD
:00000001FF
