:100000000C9434000C9451000C9451000C94510049
:100010000C9451000C9451000C9451000C9451001C
:100020000C9451000C9451000C9451000C9451000C
:100030000C9451000C9451000C9453000C945100FA
:100040000C9451000C9451000C9451000C945100EC
:100050000C9451000C9451000C9451000C945100DC
:100060000C94D5000C94510011241FBECFEFD8E0A2
:10007000DEBFCDBF11E0A0E0B1E0E4EBF4E002C0F0
:1000800005900D92A230B107D9F711E0A2E0B1E0DE
:1000900001C01D92AD30B107E1F70E94EF010C9451
:1000A00058020C9400001F920F920FB60F92112469
:1000B0008F9381E0809302018F910F900FBE0F907C
:1000C0001F901895FC012081318182819381A901C3
:1000D000481B590BCA019F73958384833383228302
:1000E0000895CF93DF931F92CDB7DEB789830E9427
:1000F000AC0089810F90DF91CF9108958093BA0071
:100100008FEF8093BB0084E08093BC0008958091C2
:10011000BC00817008958091BC0080FDFCCF80916F
:10012000000108952091BC0020FDFCCF60930501E3
:10013000FC0186E091E0DC012A2F281B261718F429
:1001400021912D93F9CF1092030188EF8093000144
:1001500085EC8093BC0008958091BC0080FDFCCFAD
:100160001092030188EF8093000185EC8093BC001E
:1001700008952091BC0020FDFCCF2091030120FFB9
:1001800010C026E031E0FC01D9018A2F821B8617BE
:1001900018F48D918193F9CF809103018D7F809325
:1001A000030180910301817008951F920F920FB691
:1001B0000F9211248F939F93EF93FF938091B90037
:1001C0008039E1F138F4803761F18038B9F1803657
:1001D00069F147C0883A51F020F4803A09F445C0EB
:1001E00040C0883B29F0803C81F03BC01092040164
:1001F000E091040181E08E0F80930401F0E0EA5F5A
:10020000FE4F80818093BB002AC0909104018091B1
:100210000501981326C0809103018160809303013A
:1002200024C08091030184608093030180910301C5
:100230008260809303011092040111C0E0910401D7
:1002400081E08E0F809304018091BB00F0E0EA5FB3
:10025000FE4F80838091030181608093030185ECD0
:1002600005C08091B9008093000184E08093BC00B8
:10027000FF91EF919F918F910F900FBE0F901F9064
:10028000189584B1837C84B984B18C6284B985E586
:100290008CBD81E08DBD08951CBC089530E120E047
:1002A00080FD2F5F969587953150D1F7822F817011
:1002B00008956FEF7FE30E94440290930B018093B7
:1002C0000A01089580910A0190910B01089580918F
:1002D0000C0108958EBD0DB407FEFDCF8EB50895B7
:1002E000CF93C82F2A98892F0E946A018C2F0E94D1
:1002F0006A012A9A2A988FEF0E946A01C82F8FEF0D
:100300000E946A012A9A2C2F30E0322F2227282BB4
:10031000C9019F73CF9108958FEF9FE30C947001F3
:100320000E948C0120910A0130910B01821B930BDA
:10033000811520E2920714F08F5F9F4308958DEF9F
:100340009FE30C9470010E949F01089581E090E06A
:100350000C947001EF92FF920F931F93CF93DF9352
:100360007C018B010E944E01C82FD0E0DD27C6958D
:10037000D795CC27CE29DF292A988D2F0E946A0194
:100380008C2F0E946A012A9AC8010E944E01C82F30
:10039000D0E0DD27C695D795CC27C02BD12B2A9846
:1003A0008D2F0E946A018C2F0E946A012A9A2A9836
:1003B0008FEF0E946A01C82F8FEF0E946A012A9A6C
:1003C000C1952C2F30E0322F2227282BC9019F7393
:1003D000DF91CF911F910F91FF90EF900895CF93F0
:1003E000DF93CDB7DEB72A970FB6F894DEBF0FBE06
:1003F000CDBF8AB1837F8AB989B199B18470987071
:10040000892B8061880F0E947E000E9441011A8220
:1004100019821C821B8218861F8284B5826084BD6B
:100420008AEF87BD82E080936E0085B5836085BDCD
:10043000789419861A8662E0CE0109960E9492008D
:1004400080910201882351F0109202010E948C01D8
:100450009A838983CE0101960E9462000E948700E0
:100460008111EECF8091030180FF09C00E948700B7
:100470008111E6CF8D819E8199878A87DCCF0E948A
:100480008B000E94AC00DCCFAA1BBB1B51E107C054
:10049000AA1FBB1FA617B70710F0A61BB70B881F14
:1004A000991F5A95A9F780959095BC01CD010895A3
:0404B000F894FFCFEE
:0204B400F8004E
:00000001FF
