:100000000C9434000C9451000C9451000C94510049
:100010000C9451000C9451000C9451000C9451001C
:100020000C9451000C9451000C9451000C9451000C
:100030000C9451000C9451000C9453000C945100FA
:100040000C9451000C9451000C9451000C945100EC
:100050000C9451000C9451000C9451000C945100DC
:100060000C94D2000C94510011241FBECFEFD8E0A5
:10007000DEBFCDBF11E0A0E0B1E0ECE2F5E002C0F0
:1000800005900D92A230B107D9F711E0A2E0B1E0DE
:1000900001C01D92A331B107E1F70E94EC010C945D
:1000A00094020C9400001F920F920FB60F9211242D
:1000B0008F9381E0809303018F910F900FBE0F907B
:1000C0001F9018958BB190E489278BB90895CF9331
:1000D000DF931F92CDB7DEB7909102019F5F90939F
:1000E00002019093120189830E94A90089810F90D7
:1000F000DF91CF9108958093BA008FEF8093BB007A
:1001000084E08093BC0008958091BC0081700895C4
:100110008091BC0080FDFCCF80910001089520916A
:10012000BC0020FDFCCF60930601FC0187E091E05C
:10013000DC012A2F281B261718F421912D93F9CFC3
:100140001092040188EF8093000185EC8093BC003D
:1001500008958091BC0080FDFCCF1092040188EFCF
:100160008093000185EC8093BC0008952091BC0031
:1001700020FDFCCF2091040120FF10C027E031E0DA
:10018000FC01D9018A2F821B861718F48D91819367
:10019000F9CF809104018D7F809304018091040147
:1001A000817008951F920F920FB60F9211248F93B2
:1001B0009F93EF93FF938091B9008039E1F138F478
:1001C000803761F18038B9F1803669F147C0883AEB
:1001D00051F020F4803A09F445C040C0883B29F032
:1001E000803C81F03BC010920501E091050181E067
:1001F0008E0F80930501F0E0E95FFE4F80818093D0
:10020000BB002AC09091050180910601981326C079
:100210008091040181608093040124C080910401D5
:1002200084608093040180910401826080930401C2
:100230001092050111C0E091050181E08E0F8093BD
:1002400005018091BB00F0E0E95FFE4F8083809163
:10025000040181608093040185EC05C08091B900A0
:100260008093000184E08093BC00FF91EF919F9107
:100270008F910F900FBE0F901F90189584B1837CC3
:1002800084B984B18C6284B985E58CBD81E08DBD73
:1002900008951CBC089530E120E080FD2F5F969505
:1002A00087953150D1F7822F817008956FEF7FE3EA
:1002B0000E946C0290930C0180930B010895809131
:1002C0000B0190910C01089580910D0108958EBD50
:1002D0000DB407FEFDCF8EB50895CF93C82F2A9891
:1002E000892F0E9467018C2F0E9467012A9A2A9801
:1002F0008FEF0E946701C82F8FEF0E9467012A9A33
:100300002C2F30E0322F2227282BC9019F73CF9149
:1003100008958FEF9FE30C946D010E948901209155
:100320000B0130910C01821B930B811520E2920787
:1003300014F08F5F9F4308958DEF9FE30C946D0140
:100340000E949C01089581E090E00C946D01EF9271
:10035000FF920F931F93CF93DF937C018B010E9439
:100360004B01C82FD0E0DD27C695D795CC27CE29E5
:10037000DF292A988D2F0E9467018C2F0E94670128
:100380002A9AC8010E944B01C82FD0E0DD27C695EC
:10039000D795CC27C02BD12B2A988D2F0E9467018F
:1003A0008C2F0E9467012A9A2A988FEF0E9467017A
:1003B000C82F8FEF0E9467012A9AC1952C2F30E039
:1003C000322F2227282BC9019F73DF91CF911F91D4
:1003D0000F91FF90EF9008958AB1837F8AB9569A62
:1003E00089B199B184709870892B8061880F0E94BF
:1003F0007B000E943E0184B5826084BD87EC87BD8E
:1004000082E080936E0085B5826085BD78941092FD
:100410000E0110920F011092100110921101109212
:10042000120165E08EE091E00E948F0000E010E094
:10043000E12CF12CC0E0D0E0809103018823B1F0E1
:10044000109203010E9462000E9489019C012C1BF2
:100450003D0B220F331F220F331F359527953595FE
:100460002795E20EF31E0F5F1F4FEC010E948400E0
:100470008111E2CF8091040180FF29C00E94840095
:100480008111DACFC701B8010E9480029B01CB0124
:10049000AA2797FDA095BA2FB0930E01AD0177273B
:1004A00057FD7095672F40930F0190931001209393
:1004B00011011092120165E08EE091E00E948F0020
:1004C0001092020100E010E0E12CF12CB5CF0E9467
:1004D00088000E946700B0CFAA1BBB1B51E107C078
:1004E000AA1FBB1FA617B70710F0A61BB70B881FC4
:1004F000991F5A95A9F780959095BC01CD01089553
:1005000097FB072E16F4009407D077FD09D00E94C0
:100510006C0207FC05D03EF4909581959F4F08959D
:0C052000709561957F4F0895F894FFCF0F
:02052C00F800D5
:00000001FF
