:100000000C9434000C9451000C9451000C94510049
:100010000C9451000C9451000C9451000C9451001C
:100020000C9451000C9451000C9451000C9451000C
:100030000C9451000C9451000C9453000C945100FA
:100040000C9451000C9451000C9451000C945100EC
:100050000C9451000C9451000C9451000C945100DC
:100060000C94CF000C94510011241FBECFEFD8E0A8
:10007000DEBFCDBF11E0A0E0B1E0E0E9F5E002C0F5
:1000800005900D92A230B107D9F711E0A2E0B1E0DE
:1000900001C01D92A831B107E1F70E94E9010C945B
:1000A000C6020C9400001F920F920FB60F921124FB
:1000B0008F9381E0809306018F910F900FBE0F9078
:1000C0001F9018958BB190E489278BB90895CF9331
:1000D000C82F909105019F5F9093050190931501A2
:1000E00067E081E191E00E948C008C2FCF91089510
:1000F0008093BA008FEF8093BB0084E08093BC00B4
:1001000008958091BC00817008958091BC0080FDAD
:10011000FCCF8091000108952091BC0020FDFCCF10
:1001200060930901FC018AE091E0DC012A2F281B81
:10013000261718F421912D93F9CF1092070188EF1B
:100140008093000185EC8093BC0008958091BC00F1
:1001500080FDFCCF1092070188EF8093000185ECB1
:100160008093BC0008952091BC0020FDFCCF20911D
:10017000070120FF10C02AE031E0FC01D9018A2FDD
:10018000821B861718F48D918193F9CF8091070116
:100190008D7F8093070180910701817008951F92E0
:1001A0000F920FB60F9211248F939F93EF93FF93AB
:1001B0008091B9008039E1F138F4803761F18038FD
:1001C000B9F1803669F147C0883A51F020F4803A9D
:1001D00009F445C040C0883B29F0803C81F03BC019
:1001E00010920801E091080181E08E0F80930801D0
:1001F000F0E0E65FFE4F80818093BB002AC09091C3
:10020000080180910901981326C08091070181603F
:100210008093070124C080910701846080930701C7
:10022000809107018260809307011092080111C03C
:10023000E091080181E08E0F809308018091BB005E
:10024000F0E0E65FFE4F808380910701816080933C
:10025000070185EC05C08091B9008093000184E01E
:100260008093BC00FF91EF919F918F910F900FBEF3
:100270000F901F90189584B1837C84B984B18C62EF
:1002800084B985E58CBD81E08DBD08951CBC0895C1
:1002900030E120E080FD2F5F969587953150D1F7B2
:1002A000822F817008956FEF7FE30E949E029093EA
:1002B0000F0180930E01089580910E0190910F011E
:1002C00008958091100108958EBD0DB407FEFDCFF5
:1002D0008EB50895CF93C82F2A98892F0E94640164
:1002E0008C2F0E9464012A9A2A988FEF0E94640141
:1002F000C82F8FEF0E9464012A9A2C2F30E0322FF2
:100300002227282BC9019F73CF9108958FEF9FE378
:100310000C946A010E94860120910E0130910F0118
:10032000821B930B811520E2920714F08F5F9F438D
:1003300008958DEF9FE30C946A010E94990108953E
:1003400081E090E00C946A01EF92FF920F931F936B
:10035000CF93DF937C018B010E944801C82FD0E02E
:10036000DD27C695D795CC27CE29DF292A988D2F52
:100370000E9464018C2F0E9464012A9AC8010E9485
:100380004801C82FD0E0DD27C695D795CC27C02BD4
:10039000D12B2A988D2F0E9464018C2F0E9464011A
:1003A0002A9A2A988FEF0E946401C82F8FEF0E942B
:1003B00064012A9AC1952C2F30E0322F2227282B56
:1003C000C9019F73DF91CF911F910F91FF90EF9023
:1003D00008958AB1837F8AB9569A89B199B1847098
:1003E0009870892B8061992787FD9095880F991FB8
:1003F000D82E0E9478000E943B0184B5826084BDA3
:1004000087EC87BD82E080936E0085B5826085BDF4
:10041000789410921101109212011092130110920F
:1004200014011092150167E081E191E00E948C00B7
:1004300000E010E0E12CF12CC0E0D0E0809106015A
:10044000882309F46BC08091040191E0980F909388
:1004500004018630C0F0109206010E9462000E94E2
:1004600086019C012C1B3D0B220F331F220F331FD3
:100470003595279535952795E20EF31E0F5F1F4F93
:1004800010920401EC010E94810081113EC0809114
:10049000070180FF35C00E94810081113FC0C70164
:1004A000B8010E94B202CB01AB01662757FD6095EF
:1004B000762F709311018B01332717FD3095232F71
:1004C00000931201509313018093140110921501AF
:1004D000809102019091030190931601809317017E
:1004E00067E081E191E00E948C001092050110927A
:1004F00003011092020100E010E0E12CF12C0EC08B
:100500000E9485000E94670009C0809102019091BD
:1005100003010196909303018093020180910201EF
:1005200090910301883E934008F488CF8D2D0E945E
:100530007800109203011092020180CFAA1BBB1B0E
:1005400051E107C0AA1FBB1FA617B70710F0A61BD3
:10055000B70B881F991F5A95A9F780959095BC01F4
:10056000CD01089597FB072E16F4009407D077FD70
:1005700009D00E949E0207FC05D03EF4909581951B
:100580009F4F0895709561957F4F0895F894FFCF20
:02059000F80071
:00000001FF
