:020000040800F2
:10000000FF3F0020FDED000845EE000845EE00082A
:1000100045EE000845EE000845EE0008000000002F
:1000200000000000000000000000000045EE000895
:1000300045EE00080000000045EE0008110700082A
:1000400045EE000845EE000845EE000845EE0008C4
:1000500045EE000845EE000845EE000845EE0008B4
:100060005544000845EE000845EE000845EE00083E
:1000700045EE000845EE000845EE000845EE000894
:1000800045EE000845EE000845EE000845EE000884
:1000900045EE000845EE000845EE000845EE000874
:1000A00045EE000845EE000845EE000845EE000864
:1000B00045EE000845EE000845EE0008450500083D
:1000C00045EE000845EE000845EE000845EE000844
:1000D00045EE00080944000845EE000845EE00081A
:1000E00045EE000845EE000845EE0008000000005F
:1000F0000000000000000000000000000000000000
:0C01000000000000000000005FF808F1A3
:10011000044B05481B1A062B02D9044B03B11847A0
:10012000704700BFA3000020A000002000000000D6
:1001300005490648091A891001EBD171491002D00E
:10014000034B03B118477047A0000020A000002017
:100150000000000010B5064C237843B9FFF7D8FF24
:10016000044B13B10448AFF300800123237010BD8A
:10017000A0000020000000002048010808B5084B3E
:100180001BB108490848AFF300800848036813B959
:10019000BDE80840CCE7064B002BF9D09847F7E7BD
:1001A00000000000A4000020204801089C0000205E
:1001B00000000000154B002B08BF134B9D46A3F514
:1001C000803A00218B460F461348144A121A13F046
:1001D0003BF90F4B002B00D098470E4B002B00D063
:1001E00098470020002104000D000D48002802D08F
:1001F0000C48AFF3008013F0D7F8200029000FF06F
:10020000FBFE13F061F800BF0000080000000000D2
:100210000000000000000000A0000020240D0020CD
:100220000000000000000000A86B01080000002092
:100230009C000020A0000020240D0020384B82B03C
:100240001A6842F001021A605968364A0A405A6038
:100250001A6822F0847222F480321A601A6822F43A
:1002600080221A605A6822F4FE025A604FF41F027C
:100270009A600022009201921A6842F480321A6059
:100280001A6802F400320192009A01320092019A37
:100290001AB9009AB2F5A06FF2D11A6812F40032BE
:1002A00018BF01220192019A012A05D01E4B4FF07E
:1002B00000629A6002B070471C4A116841F0100158
:1002C0001160116821F003011160116841F0020111
:1002D00011605A685A605A685A605A6842F48062DB
:1002E0005A605A6822F47C125A605A6842F4E81242
:1002F0005A601A6842F080721A601968084A8901C7
:10030000FBD5516821F003015160516841F00201B1
:1003100051605A6802F00C02082AFAD1C6E700BF01
:10032000001002400000FFF800ED00E00020024055
:10033000134A144B516801F00C01042903D0082919
:1003400003D0114911E011490FE051685068C1F321
:100350008341C00301F1020101D40D4804E050685B
:1003600080034CBF08480948414319605268C2F3F2
:1003700003121A4411791A68CA401A60704700BF04
:10038000001002400400002000127A000024F40053
:1003900000093D0037B50223184CADF8043018238E
:1003A00001A98DF80730164803238DF8063001F0B7
:1003B0003EFF204603F004FA6023012523802146F6
:1003C00000234FF08040E3802381658003F024F90F
:1003D00008214FF0804003F013FB29464FF0804086
:1003E00003F0D6FA29464FF0804003F010FA294670
:1003F0004FF0804003F0FFF903B030BD0E0D002038
:10040000000801404FF08042938D9BB25843FF2378
:1004100090FBF3F080B21087704707B53023ADF83A
:10042000043003238DF8063001A9102303488DF80A
:10043000073001F0FCFE03B05DF804FB000C014046
:10044000202108B5074801F055FF01284FF0200191
:10045000044803D1BDE8084001F057BFBDE808409B
:1004600001F051BF000C014030B585B0694604244D
:10047000032313488DF802300825ADF800408DF8AD
:10048000034001F0D4FE02A801F0AEF9002302946B
:100490000DEB050001248DF80C308DF80D508DF812
:1004A0000E4001F067F901A88DF804508DF8054061
:1004B0008DF806408DF8074003F090FE05B030BD82
:1004C0000008014010B5012186B04FF4001002F081
:1004D00019FBC023ADF8043003238DF8063001A9C1
:1004E0001C2314488DF8073001F0A1FE4BF6FF7273
:1004F0000023ADF80C30ADF810304FF48063ADF848
:1005000012304FF48043ADF814300B4C0B4B06A95E
:1005100041F8103D2046ADF80E2001F07FFF01218B
:10052000204601F0F3FF064B4FF000421A6006B080
:1005300010BD00BF000C014000540040A086010027
:1005400000E100E0F8B55B495B4802F00AF90128D8
:10055000044610D1594B024619785748490001F01A
:10056000FE0102F04AF8564B1B78032B2BD0224693
:100570004FF480618AE053494F4802F0F2F80128B5
:1005800023D14F4C2378012B03D100214A4801F09D
:10059000F9FF4948838A038B4B4B1B78002B40F0B3
:1005A00087802178C9B2012901D101F0DFFF2378CA
:1005B000022B7DD10021404801F0E4FF4FF400619F
:1005C0003D4802F063F80022D2E740493A4802F081
:1005D000C8F8012825D13E49374802F0C2F805463F
:1005E000F8B93C4A34481478E4B2631CDBB21370A7
:1005F00002F000F8384B1855314B19781C46013978
:10060000C9B219701A78032A05D12A464FF48061BD
:10061000294801F0E4FF237803F0FF02002B47D1C3
:1006200032E02B49244802F09CF8012801463FD1D2
:10063000234C284D2378284F032B04D100211E483A
:1006400001F0A0FF27E02378022B24D11A4801F003
:100650008DFF2E781848F6B2731CDBB22B7001F0B8
:10066000C9FF2378B855013BDBB223702E781248BE
:10067000F6B2731CDBB22B7001F0BCFF2378B855C7
:10068000013BDBB2237000224FF4C0610A48BDE891
:10069000F84001F0A4BF2E780748F6B2731CDBB215
:1006A0002B7001F0A7FF2378B855013BDBB2237014
:1006B000F8BD00BF0100000200540040E10C002022
:1006C000D90C002002000002D80C002040000006D7
:1006D00004000002E20C0020DA0C0020084B094A5A
:1006E0001B68F021B3FBF2F3074A013B5360074B51
:1006F00083F823100023936007231360704700BF23
:100700000400002040420F0010E000E000ED00E097
:10071000024A136801331360704700BFBC00002019
:10072000074A10B514684FF47A731146B4FBF3F41A
:100730001A460B68B3FBF2F31B1B8342F9D310BDBF
:10074000BC000020034B18684FF47A73B0FBF3F041
:10075000704700BFBC000020014B1868704700BF05
:10076000BC00002008B54FF4A06002F019F9012187
:10077000072002F0C7F901214FF4006002F0B6F93A
:10078000BDE8084001211D2002F0B0B908B5144BA6
:10079000984208D101214FF4007002F0BFF9002106
:1007A0004FF4007016E00F4B984208D101214FF42E
:1007B000806002F0B3F900214FF480600AE00A4B38
:1007C00098420BD101214FF4004002F0A7F900211B
:1007D0004FF40040BDE8084002F0A0B908BD00BFDA
:1007E0000024014000280140003C0140436810B54E
:1007F00023F470220B6822F4807213430A7943EACF
:1008000002234360CA688B6884681A43084B2340FC
:1008100013434A7943EA42038360C36A23F47002B4
:100820000B7C013BDBB242EA0353C36210BD00BF45
:10083000FDF7F1FF00230360037143718360C36020
:10084000012303747047836811B143F0010301E091
:1008500023F0010383607047836811B143F4807310
:1008600001E023F4807383607047C9B243680AB122
:10087000194301E023EA010141607047836843F0B6
:100880000803836070478068C0F3C00070478368C6
:1008900043F00403836070478068C0F380007047B2
:1008A000836811B143F4A00301E023F4A003836043
:1008B00070478068C0F3805070474368013923F463
:1008C000604343EA413343607047436811B143F4E6
:1008D000006301E023F4006343607047092970B5A9
:1008E0000DD9A1F10A04C66804EB44040725A5400C
:1008F00026EA050503FA04F42C43C4600AE00669FD
:1009000001EB41040725A54026EA050503FA04F496
:100910002C430461062A0CD8013A446B02EB820294
:100920001F23934024EA030301FA02F21A434263AD
:1009300070BD0C2A0CD8073A046B02EB82021F230D
:10094000934024EA030301FA02F21A43026370BDE2
:100950000D3AC46A02EB82021F23934024EA030388
:1009600001FA02F21A43C26270BD836811B143F406
:10097000801301E023F4801383607047C06C80B261
:100980007047014B186870474C240140436811B10F
:1009900043F4806301E023F480634360704743685D
:1009A00011B143F4805301E023F480534360704756
:1009B000836823F4E043194381607047836811B171
:1009C00043F4004301E023F40043836070478368ED
:1009D00011B143F4021301E023F402138360704762
:1009E0008068C0F340507047092970B50DD9A1F156
:1009F0000A04C66804EB44040725A54026EA050559
:100A000003FA04F42C43C4600AE0066901EB4104D4
:100A10000725A54026EA050503FA04F42C430461E2
:100A2000836B0232C3F30154121BD2B202EB820277
:100A30001F24944023EA040391401943816370BD4D
:100A4000836B013923F4401343EA015383637047F6
:100A500082B0002301930190019B19440191019BF5
:100A60001A6002B0704782B0002301930190019B8D
:100A7000283319440191019B186880B202B0704775
:100A8000436823F4400323F4007319434160704723
:100A9000416282627047436823F01F03194341603B
:100AA0007047054B9A6810B142F4000201E022F44D
:100AB00000029A60704700BF002401400368194299
:100AC00014BF012000207047C9430160704743688C
:100AD000006810EA112004D0C9B2194214BF0120E5
:100AE000002070476FEA11210160704708B50120AE
:100AF00002F02CF8BDE80840002002F027B8014BB6
:100B00001860704704860D42014B1860704700BFA3
:100B100000860D42014B1860704700BF88860D4269
:100B2000044A938D23F460731B041B0C18439085B7
:100B3000704700BF006C0040044A938D23F07F0390
:100B40001B041B0C18439085704700BF006C0040CD
:100B500082B000230193044B0193019B1844019040
:100B6000019B196002B07047006C004082B0002306
:100B70000193054B0193019B18440190019B188838
:100B800080B202B0704700BF006C0040014B186893
:100B9000C0B27047A0860D42034A938E9BB243F0C9
:100BA00001039386704700BF006C0040014B18683A
:100BB000C0B27047A4860D42034A938E9BB243F0A5
:100BC00002039386704700BF006C004008B50B4BD2
:100BD0000121984207D14FF0007001F0ABFF0021D6
:100BE0004FF0007006E04FF0806001F0A3FF00219D
:100BF0004FF08060BDE8084001F09CBF00640040F9
:100C0000036823F002030360036843F001030360F9
:100C10004FF480334268D20701D4013BFAD14368D4
:100C200013F0010355D08B79012B03680CBF43F0FF
:100C3000800323F080030360CB79012B03680CBF92
:100C400043F0400323F0400303600B7A012B036859
:100C50000CBF43F0200323F0200303604B7A012BE9
:100C600003680CBF43F0100323F0100303608B7A7A
:100C7000012B03680CBF43F0080323F00803036053
:100C8000CB7A012B03680CBF43F0040323F0040369
:100C90000360CB788A781B0643EA82730A7943EAB9
:100CA00002434A7943EA02530A88013A1343C36173
:100CB000036823F0010303604FF480334268D207D6
:100CC00001D5013BFAD1406800F0010080F001003D
:100CD000704718467047837A012202FA03F370B511
:100CE000DC43334AD2F8001241F00101C2F800128D
:100CF000D2F81C122140C2F81C12017BA1B9D2F813
:100D00000C12C6882140C2F80C12817A45884831FD
:100D100045EA064542F8315002888188857A42EAE0
:100D20000141244AED005151027B012A15D1204A8C
:100D30000688D2F80C1245881943C2F80C12817A41
:100D400045EA0645483142F83150C2888188857AA3
:100D500042EA0141174AED005151C27A14491AB9C9
:100D6000D1F80422224002E0D1F804221A43058976
:100D7000C1F804220E4A2DB9D1F814522C40C1F802
:100D8000144206E0012D02BFD2F814121943C2F832
:100D90001412417B012902BFD2F81C120B43C2F886
:100DA0001C32D2F8003223F00103C2F8003270BDC9
:100DB000006400404466004000238371C3710372E5
:100DC00043728372C3728370C3700323037102235F
:100DD00043710123038070470D4BD3F8002242F08A
:100DE0000102C3F80022D3F8002222F47C5222F040
:100DF0000E02C3F80022D3F8002242EA0020C3F812
:100E00000002D3F8002222F00102C3F8002270474A
:100E100000640040036811B143F4803301E023F41F
:100E2000803303607047036899B143F08003036027
:100E3000D0F8843143F48073C0F88431D0F8943111
:100E400043F48073C0F89431D0F8A43143F4807334
:100E500012E023F080030360D0F8843123F4807320
:100E6000C0F88431D0F8943123F48073C0F8943101
:100E7000D0F8A43123F48073C0F8A431704783689C
:100E8000F0B55C0107D483681A0106D48368DB00DF
:100E900005D404243EE0002402E0012400E0022402
:100EA00025014319D3F8802102F00102C3F8802103
:100EB0000E7A4A7A2EB90F68D3F8806142EA475217
:100EC00006E04F68D3F880E146EAC70646EA0E0618
:100ED0003243C3F880218A7A284402F00F028A72D2
:100EE000D3F8842122F00F02C3F88421D3F884219F
:100EF0008E7A3243C3F88421D1F80B20C0F88821C0
:100F0000D1F80F20C0F88C21D3F8802142F00102E3
:100F1000C3F880212046F0BD012908D004D302295E
:100F200018D182680C4B04E082680C4B01E08268A7
:100F30000B4B1340094A93420AD001D833B909E058
:100F4000074A934204D0044A934201D000207047DC
:100F500001207047022070470000031003000004C6
:100F600000030008012907D002D3022908D07047E6
:100F7000836843F0800306E0836843F4004302E0A3
:100F8000836843F40003836070470B0130B5C418D5
:100F9000D4F8B05105F00405EDB2157225B9D4F8B6
:100FA000B0516D0D156003E0D4F8B051ED085560F7
:100FB000D4F8B051034405F002055572D4F8B45189
:100FC00005F00F059572D4F8B441240AD474D3F80F
:100FD000B841D472D3F8B841240A1473D3F8B84195
:100FE000240C5473D3F8B841240E9473D3F8BC4145
:100FF000D473D3F8BC41240A1474D3F8BC41240C34
:101000005474D3F8BC311B0E937421B9C36843F0F8
:101010002003C36030BD036943F02003036130BD8A
:1010200021B9C36843F02003C3607047036943F0EC
:1010300020030361704709B9C06802E0012903D1A8
:10104000006900F0030070470020704799B90368F9
:1010500023F0030343F0010303604FF4803342683D
:1010600002F00302012A01D0013BF8D1406800F0F0
:101070000300012828E0012911D1036823F00303AC
:1010800003604FF480334268920701D0013BFAD1EC
:10109000436813F0030F0CBF0120002070470229A2
:1010A00016D1036823F0030343F0020303604FF4F7
:1010B0008033426802F00302022A01D0013BF8D1DA
:1010C000406800F00300022814BF00200120704790
:1010D00000207047036823F0030343F0020303601A
:1010E000406800F00300831E58425841704703686F
:1010F00023F0020303604FF480334268920701D566
:10110000013BFAD1406880F00200C0F34000704714
:10111000806900F0700070478069000E7047806938
:10112000C0F30740704743690AB1194301E023EA5D
:1011300001014161704711F4700F01D083690BE028
:10114000CB0101D5436807E00A0101D5836803E0BC
:101150008B014CBFC3680369C3F313030B4214BF75
:101160000120002070470A4B994202D1002383617D
:1011700070478A01C1F3130301D5C36070474A0168
:1011800001D5036170470A014CBF8360436070471B
:101190007000F03043690B405CD0402942D010D839
:1011A000042933D005D8012927D0022954D1C06899
:1011B0002FE010292CD0202930D008294CD1C0682C
:1011C00035E0B1F5006F3BD00CD8B1F5007F31D0E0
:1011D000B1F5806F32D0B1F5807F3DD1806900F0EC
:1011E00001007047B1F5803F1ED0B1F5003F1DD022
:1011F000B1F5004F30D1406829E0806800F001303F
:1012000020F08070003018BF01207047C06806E0F1
:10121000006910F0030018BF012070470069C0F397
:10122000C0007047006902E04068F8E74068C0F31A
:10123000001070478069C0F340007047806906E085
:10124000836913F0700F14BF012000207047C0F3B2
:10125000800070471846704700207047B1F5807FC6
:1012600035D00CD8082924D004D801291CD0042951
:101270001DD0704720291FD040291FD07047B1F5DD
:10128000006F22D006D8B1F5007F20D0B1F5806F75
:101290001DD07047B1F5803F13D0B1F5003F12D09B
:1012A000B1F5004F15D110E00A4B83607047082359
:1012B00000E01023C3607047082300E0102303619F
:1012C0007047082304E0102302E000238361042315
:1012D000436070470101010008B501214FF08040D3
:1012E00001F028FCBDE8084000214FF0804001F0EB
:1012F00021BC10B5054C4288236803F0F301038834
:1013000013430B439BB2236010BD00BF0078004025
:10131000034B186018B9034A1368DB07FCD4704705
:1013200000000F4200780040014B1860704700BF7A
:1013300004000F42014B5860704700BF0078004026
:10134000014B9860704700BF00780040014B586126
:10135000704700BF00780040014B9869C0B27047E9
:1013600000780040014B01221A60704700020F42D2
:10137000014B1860704700BF04020F42020F14BFF8
:10138000054A064A20F07F43126818BF1B0C13421F
:1013900014BF0120002070470C78004010780040F6
:1013A000C043054A20F003001369116903F00203EA
:1013B00003430B401361704700780040034A1168F3
:1013C0001369184018BFC1F340007047007800400F
:1013D000C043054A20F003001369116903F00203BA
:1013E00003430B401361704700780040014B01221A
:1013F0009A60704700300240014B186018687047CF
:1014000000300240054B00EB8101884203D050F8C8
:10141000042B1A60F9E7014B18687047003002404E
:10142000014B1868704700BF00300240014B187133
:10143000704700BF00300240014B1879704700BF71
:101440000030024008B501214FF0005001F072FB5E
:10145000BDE8084000214FF0005001F06BBB40F6A2
:10146000FE7330B5084D83402A6822EA030391E8F1
:10147000140014438A681443CA68224302FA00F035
:101480001843286030BD00BF007400400023036093
:1014900043608360C3607047064A012319B1116835
:1014A00083400B4303E01168834021EA0303136088
:1014B000704700BF00740040064A4FF4805319B1D2
:1014C000116883400B4303E01168834021EA030362
:1014D0001360704700740040064A0009012319B1E7
:1014E000516883400B4303E05168834021EA0303C2
:1014F0005360704700740040044B5A6810B142F0CA
:10150000030201E022F003025A60704700740040B9
:10151000054B814012B11A68114302E01A6822EAB1
:1015200001011960704700BF0074004082B00023C1
:101530000193054B0193019B083318440190019BD3
:10154000196002B0704700BF0074004082B00023F1
:101550000193054B0193019B143318440190019BA7
:10156000196002B0704700BF007400400828044BA7
:101570000CBF42EA012242EA0142C250704700BF5A
:101580002074004082B000230193064B0193019B1D
:101590002C3303EB90000190019B186880B202B0DD
:1015A000704700BF007400404FF6FE73026813409E
:1015B00003600023036043608360C360284B98424C
:1015C00001D1284A27E0284B984201D1254A2AE038
:1015D000264B984201D1234A2DE0254B984201D158
:1015E000204A30E0234B984201D11E4A33E0224B7F
:1015F000984204D11B4A536843F470032EE01F4BFA
:10160000984204D1174A536843F0706326E01C4B9C
:10161000984204D11B4A536843F00F031EE01A4B53
:10162000984204D1174A536843F0F00316E0174B71
:10163000984204D1134A536843F470630EE0144B8C
:10164000984204D10F4A536843F4704306E0114BAB
:10165000984204D10B4A536843F470235360704797
:1016600008000240000002401C000240300002401E
:1016700044000240580002406C00024080000240DA
:1016800008040240000402401C04024030040240EE
:1016900044040240580402400A6A10B58C6803688A
:1016A00014430A6923F4FF4314434A6923F0700387
:1016B00014438A691443CA6914434A6A14438A6A00
:1016C000224313430360CB6843600B6883604B681D
:1016D000C36010BD0023036043608360C360036187
:1016E00043618361C361036243628362704719B1DE
:1016F000036843F0010303E04FF6FE7302681340F2
:101700000360704703680AB1194301E023EA01014D
:101710000160704741607047406880B27047C30005
:101720004CBF044B044B1B68034214BF0120002034
:10173000704700BF0004024000000240FFF7EFBF07
:10174000C3004CBF014B024B58607047000402407D
:1017500000000240FFF7F4BF044B00221A605A60F9
:101760009A60DA60024A5A61704700BF0004014083
:10177000FFFF0F00827970B50168037942B3CE4351
:10178000184A03F18043156803F58233354015602C
:101790005468344054601C6821431960016894689F
:1017A000CD432C409460D3682B40D3604379102BF9
:1017B00006D193680B439360D3681943D16070BD21
:1017C00003F1804303F582331A681143196070BD39
:1017D00003F1804303F582331A6822EA01021A609A
:1017E00070BD00BF0004014000230C2203600371A0
:1017F000427183717047024A136918431061704740
:1018000000040140034B5B69034214BF0120002028
:10181000704700BF00040140014B5861704700BF92
:1018200000040140054B1A685B69034004D0024282
:1018300014BF012000207047184670470004014083
:10184000014B5861704700BF00040140034A136810
:1018500003F0380318431060704700BF00200240B7
:10186000044B1A6822F008021A601A6810431860C4
:10187000704700BF00200240044B1A6822F010029B
:101880001A601A6810431860704700BF00200240B9
:10189000034B044A5A6002F188325A60704700BF15
:1018A0000020024023016745FFF7F2BF024A136997
:1018B00043F080031361704700200240FFF7F6BF3A
:1018C000014BD8698008704700200240014B186A1C
:1018D000704700BF00200240024BD869C0F34000AF
:1018E000704700BF00200240024B1868C0F3401050
:1018F000704700BF00200240044B1A6909B1104331
:1019000001E022EA00001861704700BF0020024099
:101910000128064B03D1D86900F001007047DB684D
:10192000184214BF01200020704700BF0020024071
:10193000014BD860704700BF00200240084BDA68B6
:10194000D10709D4DA68520708D4DB6813F0100F06
:1019500014BF032004207047012070470220704705
:1019600000200240084BDA68D10709D4DA68520730
:1019700008D4DB6813F0100F14BF03200420704755
:1019800001207047022070470020024010B5044635
:10199000FFF7E8FF012806D11CB1FFF7E3FF013C88
:1019A000F8E7052010BD002C08BF052010BD10B5BC
:1019B0004FF43020FFF7EAFF042811D1094C4FF40F
:1019C0003020236943F004032361236943F040037B
:1019D0002361FFF7DBFF41F6FB73226913402361AC
:1019E00010BD00BF00200240FFF7E1BFF8B5134D66
:1019F000134B0446AB6003F18833AB604FF40050E7
:101A00000F461646FFF7C2FF042816D12B6944F093
:101A1000F80443F010032B6147EA0401094B46EA3E
:101A200001025A804FF40050FFF7B0FF05281FBF96
:101A300041F6EF732A6913402B61F8BD0020024084
:101A40002301674500F8FF1F38B505464FF43020E5
:101A5000FFF79CFF042836D11B4C1C4B4FF4302061
:101A6000A36003F18833A360236943F0200323615B
:101A7000236943F040032361FFF788FF04281BD14B
:101A800041F6DF73226913402361236943F0100399
:101A900023610F4B0DB1002200E0A5221A804FF404
:101AA0003020FFF773FF05280DD041F6EF73064A8B
:101AB00011690B40136138BD05281FBF41F6DF7364
:101AC00022691340236138BD00200240230167458D
:101AD00000F8FF1F10B504464FF40050FFF756FF03
:101AE000042843D1E443224B224AE1B29A6002F136
:101AF00088329A601A69FF2942F010021A6104D1F3
:101B0000C4F30723FF2B09D110E01B4B4FF4005007
:101B10001981FFF73BFF042820D1F1E7164A4FF463
:101B200000505381FFF732FF042817D1C4F3074355
:101B3000FF2B07D0104A4FF400509381FFF726FF88
:101B400004280BD1240EFF2C01D1042008E00A4BFD
:101B5000A4B2DC814FF40050FFF718FF052805D030
:101B600041F6EF73024A11690B40136110BD00BFCB
:101B7000002002402301674500F8FF1F70B50646AC
:101B80004FF400500D46FFF701FF042816D10C4C0E
:101B90000C4BADB2A36003F18833A36023694FF40B
:101BA000005043F0100323613580FFF7EFFE052856
:101BB0001FBF41F6EF7322691340236170BD00BF60
:101BC000002002402301674570B505464FF40050E0
:101BD0000E46FFF7DBFE04280ED1084C4FF40050F0
:101BE000236943F0010323612E80FFF7CFFE41F606
:101BF000FE7322691340236170BD00BF00200240C4
:101C000073B5002306464FF400500D460193FFF7CD
:101C1000BDFE04281AD10E4C4FF40050236943F046
:101C200001032361ABB23380FFF7B0FE042808D173
:101C300002360196019B2D0C1D804FF40050FFF7DA
:101C4000A5FE41F6FE7322691340236102B070BD08
:101C50000020024038B5FFF73FFE00284FF4302047
:101C60000CBFA5250025FFF791FE042829D1154CAE
:101C7000154B4FF43020A36003F18833A360236930
:101C800043F020032361236943F040032361FFF7FE
:101C90007DFE04280ED141F6DF7322694FF4005017
:101CA00013402361236943F010032361074B1D8018
:101CB000FFF76CFE05281FBF41F6EF732269134042
:101CC000236138BD002002402301674500F8FF1F53
:101CD00038B505464FF43020FFF758FE042812D1DE
:101CE000094C4FF43020236943F0020323616561FE
:101CF000236943F040032361FFF748FE41F6FD737B
:101D000022691340236138BD00200240FFF73EBE28
:101D10004FF0204318B943F2DB021A6003E043F2AC
:101D2000D20243F82020800000F120406FF0704381
:101D30004360C0F80431704710280CBF054B064BB8
:101D40004022182119605A604FF0FC329A60DA6024
:101D5000704700BF600000A0800000A0054B182263
:101D60001A6000225A604FF0FC329A60DA601A6101
:101D7000704700BFA00000A08168436830B541EA09
:101D80000302C368C46A1A430369082942EA0302CA
:101D90004369416B42EA030283690D6842EA030228
:101DA000C36942EA0302036A42EA0302436A42EA5F
:101DB0000302836A43EA0203026B43EA040343EA31
:101DC000020302684FEA820202F12042136002BF5E
:101DD000136843F0400313608B69B4F5804F43EA06
:101DE00005034D6843EA05138D6843EA0523CD6872
:101DF00043EA05430D69496943EA055343EA016330
:101E0000536010D1816B08688B690343486843EACB
:101E10000013886843EA00230869496943EA0053CC
:101E200043EA016301E06FF07043C2F8043130BD52
:101E30004268836830B51343C26843F008031A430D
:101E40000369C46913434269616843EA42238269B2
:101E5000056A43EA4233A2680068120442EA01229A
:101E60002168102842EA0102E168AC6842EA016197
:101E70006A684FEA044444EA02242A6808BF064814
:101E800042EA0402EC6818BF044842EA04620360B4
:101E90008160C26030BD00BF600000A0800000A073
:101EA0000368426843F0100343EA422382681549FD
:101EB00010B543EA4233C4680B60A2686368120439
:101EC00042EA032223681343E268046943EA026397
:101ED0008B60A2686368120442EA032223684069A7
:101EE0001343E26843EA0263CB60826843681204EA
:101EF00042EA032203681343C26843EA02630B61A8
:101F000010BD00BFA00000A0022210B542604FF437
:101F100080524262416B4FF40052826200230F22D2
:101F2000FF2403608360C360036143618361C36115
:101F30000362C36203630A604A608C60CA600A611C
:101F40004A618B61816B0A604A608C60CA600A6179
:101F50004A618B6110BD10230360C2690023436096
:101F60008360C360036143618361FC23136053603A
:101F70009360D360026A136053609360D3607047CC
:101F8000C2680023036043608360FC2313605360D6
:101F90009360D3600269136053609360D3604269B9
:101FA000136053609360D3607047800000F120405D
:101FB00019B1036843F0010302E00268014B1340CA
:101FC00003607047FEFF0F0039B110280CBF074AAD
:101FD000074A136843F0040306E010280CBF034AC5
:101FE000034A044B11680B4013607047600000A067
:101FF000800000A0FBFF0F00054B18B11A6842F0EB
:10200000040202E01968034A0A401A60704700BFE0
:10201000A00000A0FBFF0F0039B110280CBF074A39
:10202000074A136843F0400306E010280CBF034A38
:10203000034A044B11680B4013607047600000A016
:10204000800000A0BFFF0F0010280CBF014B024B07
:1020500058697047600000A0800000A07AB1102885
:1020600001D10E4A08E0B0F5807F04D10C4B5A68CC
:102070001143596070470B4A536819430CE010280C
:102080006FEA010101D1054A04E0B0F5807F0CBF81
:10209000034A044A5368194051607047600000A029
:1020A000800000A0A00000A0102801D1064B04E091
:1020B000B0F5807F0CBF054B054B5B680B4214BF2E
:1020C00001200020704700BF600000A0800000A039
:1020D000A00000A010286FEA010101D1054A04E028
:1020E000B0F5807F0CBF044A044A53681940516020
:1020F000704700BF600000A0800000A0A00000A00A
:10210000102801D1084B04E0B0F5807F0CBF074BCD
:10211000074B5B6813EA010004D013EAD10314BF34
:1021200001200020704700BF600000A0800000A0D8
:10213000A00000A010284FEAD10101D1054A04E017
:10214000B0F5807F0CBF044A044A536823EA0101BA
:1021500051607047600000A0800000A0A00000A0B7
:1021600008B5264B984206D10121042000F0D6FC88
:10217000002104203CE0224B984206D10121082096
:1021800000F0CCFC0021082032E01E4B984206D122
:102190000121102000F0C2FC0021102028E01A4B81
:1021A000984206D10121202000F0B8FC0021202017
:1021B0001EE0164B984206D10121402000F0AEFCF3
:1021C0000021402014E0124B984206D101218020CA
:1021D00000F0A4FC002180200AE00E4B98420BD1B5
:1021E00001214FF4807000F099FC00214FF48070C1
:1021F000BDE8084000F092BC08BD00BF00080140E7
:10220000000C014000100140001401400018014082
:10221000001C01400020014008B50121084600F0E3
:102220007DFCBDE808400021012000F077BCCA78A1
:102230002DE9F041D40648BF8C780E8802F00F03D8
:1022400048BF234316F0FF0F1ED0016800244FF053
:10225000010E4FF00F0C0EFA04F737EA06050FD106
:10226000A5000CFA05F821EA080103FA05F5282A69
:1022700041EA050101D1476102E0482A08BF076130
:102280000134082CE7D10160FF2E20D941680024D9
:102290004FF0010E4FF00F0C04F108050EFA05F592
:1022A00035EA06070FD1A7000CFA07F821EA080162
:1022B00003FA07F7282A41EA070101D1456102E044
:1022C000482A08BF05610134082CE5D14160BDE80A
:1022D000F0814FF6FF730380022383700423C370E1
:1022E00070478368194214BF01200020704780683E
:1022F00080B27047C368194214BF012000207047A4
:10230000C06880B2704701617047416170470AB18F
:102310000161704741617047C160704741F480338B
:10232000836181618361836983697047054A1368AA
:1023300023F07F031B041B0C194341EA00101060BB
:10234000704700BF00000140014B1860704700BF9C
:102350001C0020420028164A30B500F44015B4BFD6
:10236000D3695368B5F5401F84B206D1556823F090
:10237000706325F0706555600EE0C20255BF420DD6
:1023800003221201C0F303454CBFAA4004FA02F233
:1023900023EA020343F0706319B1420D1201944025
:1023A0002343034A0028B4BFD361536030BD00BF4C
:1023B0000000014001F0030301F0FC0101F1804144
:1023C00001F5803110B59B008C680F229A4024EAF9
:1023D00002028A608A6898401043886010BD014BF1
:1023E00018607047DC00204208B50B4B0121984271
:1023F00007D14FF4001000F09DFB00214FF40010B6
:1024000006E04FF4800000F095FB00214FF48000BF
:10241000BDE8084000F08EBB0054004070B586B0A7
:102420000446868801A80D4600F00EFB039A2E484C
:1024300026F03F06B2FBF0F03604360C81B20E43B4
:10244000A6802388294E23F001031B041B0C238044
:102450002B68B3420AD85B00B2FBF3F301319BB2A5
:10246000032B89B298BF0423218423E04BF6FF712C
:10247000EE888E421BBF19214B4303EB4303B2FB93
:10248000F3F30BBFB2FBF3F39BB29BB243F4804375
:10249000C3F30B020AB943F001034FF4967101FB39
:1024A00000F24FF47A7192FBF1F2013292B243F4EE
:1024B00000432284A3832388A9889BB243F00103AD
:1024C000238023886A8923F4816323F002031B0499
:1024D0000A431B0C13439BB22380AA892B89134305
:1024E0009BB2238106B070BD40420F00A086010060
:1024F00041F288334BF6FF7203600023838003812F
:1025000043814FF48043C28083817047038819B1AF
:102510009BB243F0010303E023F001031B041B0CF7
:1025200003807047838819B19BB243F4006303E0D2
:1025300023F400631B041B0C83807047838819B14C
:102540009BB243F4805303E023F480531B041B0C21
:1025500083807047038819B19BB243F4807303E012
:1025600023F480731B041B0C03807047038819B18C
:102570009BB243F4007303E023F400731B041B0CB1
:1025800003807047038819B19BB243F4806303E072
:1025900023F480631B041B0C03807047838901F0C4
:1025A000FE019BB223F0FE030B43838170478389B6
:1025B00019B19BB243F0010303E023F001031B04B4
:1025C0001B0C83817047038819B19BB243F0400311
:1025D00003E023F040031B041B0C03807047838837
:1025E0009BB20AB1194301E023EA010181807047DF
:1025F00001827047008AC0B2704712B141F00101F8
:1026000001E001F0FE0189B20182704782B000232F
:1026100001930190019B19440191019B188880B29C
:1026200002B07047038829B16FEA43436FEA53430E
:102630009BB201E0C3F30E03038070470388B1F53A
:10264000005F15BF23F400539BB21B0443F40053F7
:1026500018BF1B0C03807047038819B19BB243F469
:10266000805303E023F480531B041B0C038070474A
:102670000388B1F5006F15BF23F400639BB21B0400
:1026800043F4006318BF1B0C03807047FFF7F0BFD3
:10269000038819B19BB243F0200303E023F0200329
:1026A0001B041B0C03807047008BC0F3072070478E
:1026B000038819B19BB243F0100303E023F0100329
:1026C0001B041B0C03807047038819B99BB243F0AD
:1026D000800303E023F080031B041B0C038070477E
:1026E000838BB1F5804F1BBF23F480431B049BB247
:1026F0001B0C08BF43F4804383837047838A008B9D
:102700009BB243EA004321F07F4203EA0200431AEE
:10271000584258417047838A008B9BB243EA00407D
:1027200020F07F40704782B00023009301930B0F8D
:1027300001900093009B21F07F4113B1019B143362
:1027400002E0019B090C18330193019B1B6819429D
:1027500014BF0120002002B07047C94389B28182B2
:1027600070478388808A9BB280B2084006D003F409
:10277000E06313EA114314BF012000207047C943EE
:1027800089B28182704700BF014B1860704700BF5B
:1027900000300040014B5860704700BF00300040DF
:1027A000014B9860704700BF003000404AF6AA22F3
:1027B000014B1A60704700BF003000404CF6CC421D
:1027C000014B1A60704700BF00300040034BDB68CC
:1027D000184214BF01200020704700BF00300040A5
:1027E00008B501214FF0805000F0A4F9BDE8084081
:1027F00000214FF0805000F09DB9014B18607047E8
:1028000020000E42014B1860704700BF10000E42BE
:10281000034A136823F0E00318431060704700BFB9
:1028200000700040014B1860704700BFA0000E42CE
:102830000A4A0129136823F0030340EA0300084B06
:1028400010601A6942F004021A6101D130BF00E041
:1028500020BF1A6922F004021A617047007000401C
:1028600000ED00E0074B1A6842F004021A601A6893
:1028700042F002021A60044A136943F00403136130
:1028800030BF70470070004000ED00E0034B5B6814
:10289000034214BF01200020704700BF00700040B9
:1028A000024A136843EA80001060704700700040DD
:1028B0000D4B1A6842F001021A6059680B4A0A402F
:1028C0005A601A6822F0847222F480321A601A6800
:1028D00022F480221A605A6822F4FE025A604FF4F1
:1028E0001F029A60704700BF001002400000FFF80E
:1028F0000C4BB0F5803F1A6822F480321A601A68D7
:1029000022F480221A6003D0B0F5802F04D07047E3
:102910001A6842F4803202E01A6842F4A0221A6077
:10292000704700BF00100240034A136823F0F80309
:1029300043EAC0001060704700100240014B18606D
:10294000704700BF00004242034A536823F47C13DF
:10295000194308435060704700100240014B186053
:10296000704700BF60004242034A536823F00303EC
:1029700018435060704700BF00100240024B586877
:1029800000F00C00704700BF00100240034A53687B
:1029900023F0F00318435060704700BF001002405E
:1029A000034A536823F4E06318435060704700BF44
:1029B00000100240034A536823F4605343EAC00006
:1029C0005060704700100240044B1A7809B1104360
:1029D00001E022EA00001870704700BF09100240B1
:1029E000014B1860704700BFD8004242034A536849
:1029F00023F4404318435060704700BF001002406A
:102A0000064B002201281A701A7002D0042802D046
:102A100070471870704705221A70704720100240E6
:102A2000014B1860704700BF80044242024A136A9B
:102A300018431062704700BF00100240014B18603D
:102A4000704700BF3C0442421D4A10B5536803F072
:102A50000C03042B03D0082B03D01A4B11E01A4BA4
:102A60000FE053685168C3F38343CC0303F10203BF
:102A700001D4164904E0516889034CBF1149124939
:102A80004B43036053681249C3F30313CC5C0368E0
:102A9000E34043605468C4F302240C5D23FA04F459
:102AA00084605468C4F3C2240C5DE340C360526880
:102AB000C2F381320A44127CB3FBF2F3036110BD0E
:102AC0000010024000127A000024F40000093D00CA
:102AD00018000020044B5A6909B1104301E022EAB2
:102AE00000005861704700BF00100240044B9A6913
:102AF00009B1104301E022EA00009861704700BF6D
:102B000000100240044BDA6909B1104301E022EAE7
:102B10000000D861704700BF00100240044BDA6823
:102B200009B1104301E022EA0000D860704700BFFD
:102B300000100240044B1A6909B1104301E022EA77
:102B400000001861704700BF00100240014B186080
:102B5000704700BF40044242014B1860704700BFFD
:102B60004C004242014B1870704700BF07100240F2
:102B70004209012A074B01D11B6803E0022A0CBF5E
:102B80001B6A5B6A00F01F0023FA00F000F00100EE
:102B9000704700BF0010024007B5002301933120A9
:102BA000FFF7E6FF019B01330193019BB3F5A06F93
:102BB00001D00028F3D03120FFF7DAFF003018BF32
:102BC000012003B05DF804FB024A536A43F08073AE
:102BD0005362704700100240034B9B68184214BFB9
:102BE00001200020704700BF00100240014B187008
:102BF000704700BF0A10024008B5154B98420BD130
:102C000001214FF48050FFF789FFBDE80840002103
:102C10004FF48050FFF782BF0E4B984208D101213C
:102C20004FF48040FFF786FF00214FF480400AE018
:102C3000094B98420BD101214FF40040FFF77AFF76
:102C400000214FF40040BDE80840FFF773BF08BD06
:102C50000030014000380040003C004003880A88F2
:102C600010B503F441544B8813438A881343CA8830
:102C700013430A8913434A8913438A891343CA8930
:102C8000134323439BB20380838B23F400631B0411
:102C90001B0C83830B8A038210BD838BF0B523F456
:102CA0007B6323F00F031B041B0C83830223038429
:102CB0008B68868B022B87B005460C46B6B223D0B4
:102CC0008B8801A8002B14BF02270127FFF7BCFE49
:102CD000E3880199B3F5007F1CBF7F01B1FBF7F1D9
:102CE0004FF00A0208BF090A4A43A368B2FBF3F394
:102CF00005330A229BB2B3FBF2F303F00102120286
:102D0000C3F34F0392B200E00022991E89B2FE295C
:102D100024BF002202231343E28813439BB22B8477
:102D20002388A2881E43638846F400663343134316
:102D3000A28913439BB2AB8307B0F0BD002303808D
:102D400043808380C380038143818381C3810723C0
:102D50000382704700230222038043808380C38064
:102D6000826083817047038819B19BB243F04003AE
:102D700003E023F040031B041B0C03807047838B8C
:102D800019B19BB243F4806303E023F480631B0416
:102D90001B0C838370470123090903FA01F183881F
:102DA00089B29BB20AB1194301E023EA0101818093
:102DB000704783889BB20AB1194301E023EA0101FD
:102DC0008180704781817047808980B270474FF65B
:102DD000FF63994203880BBF23F480739BB21B04EB
:102DE00043F4807308BF1B0C03807047838819B1BC
:102DF0009BB243F0040303E023F004031B041B0C09
:102E000083807047038823F400631B041B0C03803A
:102E100003889BB219430180704703889BB243F437
:102E2000805303807047038819B19BB243F4005369
:102E300003E023F400531B041B0C0380704701299B
:102E400014BF008B808A80B27047008A80B27047BE
:102E50000388B1F5804F15BF23F480439BB21B0458
:102E600043F4804318BF1B0C038070470389194249
:102E700014BF012000207047C94389B20181704707
:102E800010B584880389012201F00F009BB202FA79
:102E900000F01840A4B205D009098A40144214BFBA
:102EA0000120002010BD01F00F01012303FA01F100
:102EB000C94389B20181704708B5214B98420BD1B3
:102EC00001214FF48040FFF729FEBDE808400021B2
:102ED0004FF48040FFF722BE1A4B984208D10121DF
:102EE0004FF40030FFF726FE00214FF4003022E0BF
:102EF000154B984208D101214FF48020FFF71AFEAC
:102F000000214FF4802016E0104B984208D1012197
:102F10004FF40020FFF70EFE00214FF400200AE0DE
:102F20000B4B98420BD101214FF48010FFF702FEAA
:102F300000214FF48010BDE80840FFF7FBBD08BD3D
:102F4000003801400044004000480040004C004070
:102F50000050004070B50E460446038ACA889BB2F2
:102F600023F440531343038282898988338992B2C0
:102F70000B43718922F4B0520B4322F00C0213432D
:102F80009BB28381838AB2899BB223F4407386B05B
:102F90001343838201A8FFF757FD174A039B049D43
:102FA0003168944218BF1D4619226A43A3896426DA
:102FB00013F4004F14BF4D008D00B2FBF5F5B5FBC7
:102FC000F6F0A28900010109120406FB115307D58E
:102FD000D9003231B1FBF6F202F00702104306E0ED
:102FE0001A013232B2FBF6F303F00F03184380B23A
:102FF000208106B070BD00BF003801404FF4165369
:1030000003600C2200238380C3800381428183817B
:1030100070474B8810B50C88028A23438C88C98876
:1030200092B223430B4322F4706213439BB2038298
:1030300010BD0023038043808380C3807047838951
:1030400019B19BB243F4005303E023F400531B0473
:103050001B0C83817047012310B5C1F342149C42BD
:1030600001F01F0103FA01F101D10C3003E0022C41
:103070000CBF1030143003680AB1194301E023EA91
:103080000101016010BD838A9BB20AB1194301E0BE
:1030900023EA010181827047038A23F00F031B0496
:1030A0001B0C0382038A9BB21943018270478389F8
:1030B00023F400631B041B0C838183899BB2194397
:1030C00081817047838919B19BB243F0020303E009
:1030D00023F002031B041B0C83817047038A23F037
:1030E00020031B041B0C0382038A9BB21943018239
:1030F0007047038A19B19BB243F4804303E023F481
:1031000080431B041B0C03827047C1F308018180BC
:1031100070478088C0F30800704783899BB243F0F2
:10312000010383817047038BDBB20383038B9BB264
:1031300043EA012101837047038B03F47F43038338
:10314000038B9BB2194301837047838A19B19BB2E9
:1031500043F0200303E023F020031B041B0C8382B5
:103160007047838A19B19BB243F0100303E023F048
:1031700010031B041B0C83827047838A19B19BB216
:1031800043F0080303E023F008031B041B0C8382B5
:103190007047838929B16FEA43436FEA53439BB277
:1031A00001E0C3F30E0383817047838A19B19BB298
:1031B00043F4006303E023F400631B041B0C8382CD
:1031C0007047838A23F004031B041B0C8382838AC9
:1031D0009BB2194381827047838A19B19BB243F035
:1031E000020303E023F002031B041B0C83827047DD
:1031F0000388194214BF012000207047C94389B2D7
:1032000001807047012310B5C1F3421401F01F0281
:103210009C4203FA02F201D1838903E0022C0CBF25
:10322000038A838A9BB21340028892B243B101237E
:10323000090A03FA01F10A4214BF1846002010BD22
:10324000184610BD090A012303FA01F1C94389B2E6
:103250000180704730B5058C25F001052D042D0C3B
:103260000584058B048CADB225F0F3052A4342EAB0
:1032700003139AB2104BA4B2984212D003F5006324
:1032800098420ED0B0F1804F0BD0A3F598339842FE
:1032900007D003F58063984203D003F5806398421A
:1032A00002D124F0020401E024F00A0444F00104F5
:1032B00021430283018430BD002C014030B5048CD1
:1032C00024F010042404240C0484058B048C25F4BD
:1032D00040752D052D0D45EA022242EA0333144ABA
:1032E000A4B290429BB212D002F5006290420ED07E
:1032F000B0F1804F0BD0A2F59832904207D002F582
:103300008062904203D002F58062904207D124F09F
:10331000200444F0100444EA011189B204E024F0CE
:10332000A00444F0100421430383018430BD00BF96
:10333000002C014008B5614B984208D101214FF49F
:103340000060FFF7EBFB00214FF40060B1E0B0F14B
:10335000804F06D101210846FFF7ECFB0021012038
:1033600008E0574B984209D101210220FFF7E2FB08
:1033700000210220BDE80840FFF7DCBB514B98421A
:1033800006D101210420FFF7D5FB00210420F1E73D
:103390004D4B984206D101210820FFF7CBFB0021BD
:1033A0000820E7E7494B984206D101211020FFF79A
:1033B000C1FB00211020DDE7454B984206D10121D9
:1033C0002020FFF7B7FB00212020D3E7414B984294
:1033D00008D101214FF40050FFF7A0FB00214FF46A
:1033E000005066E03C4B984208D101214FF4002088
:1033F000FFF794FB00214FF400205AE0374B98422E
:1034000008D101214FF48010FFF788FB00214FF411
:1034100080104EE0324B984208D101214FF4001049
:10342000FFF77CFB00214FF4001042E02D4B984247
:1034300006D101214020FFF77DFB0021402099E7C4
:10344000294B984206D101218020FFF773FB002110
:1034500080208FE7254B984208D101214FF48070DE
:10346000FFF768FB00214FF4807083E7204B984200
:1034700008D101214FF48030FFF750FB00214FF4B9
:10348000803016E01B4B984208D101214FF40030E8
:10349000FFF744FB00214FF400300AE0164B98423E
:1034A0000BD101214FF48020FFF738FB00214FF4AE
:1034B0008020BDE80840FFF731BB08BD002C01406B
:1034C0000004004000080040000C004000100040D4
:1034D0000014004000340140004C01400050014005
:1034E0000054014000180040001C00400020004033
:1034F000004001400044014000480140224A038846
:1035000090429BB212D002F5006290420ED0B0F110
:10351000804F0BD0A2F59832904207D002F580621E
:10352000904203D002F58062904203D14A8823F092
:1035300070031343154A904208D002F5806290420E
:103540001FBF23F44073CA889BB2134303808B8848
:1035500083850B8803850C4B98420FD003F50063DD
:1035600098420BD003F54063984207D003F580637F
:10357000984203D003F58063984201D10B7A038609
:1035800001238382704700BF002C014000100040DF
:10359000038C70B523F001031B041B0C0384028C05
:1035A0008688038B0D8823F073031B041B0C1D43BB
:1035B00022F002020C894B881204120C234313439D
:1035C000144AB6B290429BB20FD002F5006290420C
:1035D0000BD002F54062904207D002F58062904223
:1035E00003D002F5806290420ED14C8923F008038B
:1035F0001C438B8824F0040426F4407223438E89F4
:10360000CC893443224396B2CA8886800583828659
:10361000038470BD002C0140038C30B523F01003EF
:103620001B041B0C0384038C8588028B0C8822F4FA
:10363000E6421204120C42EA042223F0200394B260
:103640001B040A891B0C43EA02134A88ADB243EA01
:103650000213124A9BB2904203D002F500629042DC
:1036600015D123F080034A899BB243EA02124FF638
:10367000BF7313408A8825F4406543EA02138A89A0
:103680009BB245EA8205CA8945EA8205ADB2CA887D
:10369000858004830287038430BD00BF002C014075
:1036A000038C30B523F480731B041B0C0384038C40
:1036B0008488828B0D8822F073021204120C23F48A
:1036C000007315431B040A891B0C43EA02234A8832
:1036D000A4B243EA0223124A9BB2904203D002F5FD
:1036E0000062904215D123F400634A899BB243EAF9
:1036F00002224FF6FF3313408A8824F4405443EAF1
:1037000002238A899BB244EA0214CA8944EA021459
:10371000A4B2CA88848085838287038430BD00BFB9
:10372000002C0140038C30B523F480531B041B0C88
:103730000384038C8488828B0D8822F4E642120471
:10374000120C23F4005342EA05221B040D891B0CC2
:1037500043EA05334D88A4B243EA05330A4D92B2D9
:10376000A8429BB203D005F50065A84205D18D891A
:1037700024F4804444EA8514A4B284808283CA88F5
:10378000A0F84020038430BD002C01400A884B88FB
:1037900013438A881343CA8813430A8913434A8907
:1037A00013438A8913439BB2A0F8443070474FF605
:1037B000FF73838000230380C380438003727047BC
:1037C0000023038043808380C380038143818381FE
:1037D000C381704700230122038043808280C3801D
:1037E000038170470023038043808380C38003816B
:1037F000438183817047038819B19BB243F0010371
:1038000003E023F001031B041B0C03807047B0F896
:10381000443029B16FEA43436FEA53439BB201E05E
:10382000C3F30E03A0F844307047818270470A4307
:10383000A0F84820704783899BB20AB1194301E080
:1038400023EA010181817047FFF7F5BF038923F067
:1038500007031B041B0C03817047038923F07003CB
:103860001B041B0C1943018103899BB243F007031E
:103870000381704738B50D46602D114604464FF060
:10388000010202D1FFF71AFD01E0FFF7E3FC2189F5
:1038900021F070010904090C2943218123899BB27D
:1038A00043F00703238138BD10B50489E4B22143F6
:1038B0000A4342EA032399B2018110BD10B5FFF714
:1038C000F3FF038923F077031B041B0C43F07703FA
:1038D000038110BD10B5FFF7E7FF03899BB243F4E6
:1038E0008043038110BD018582827047038823F0E5
:1038F00070031B041B0C194301807047038923F0DC
:1039000070031B041B0C19430181704770B50689B5
:10391000048B058C24F44074ADB224F0030425F02C
:10392000220526F0070624042A433604240C360C0C
:1039300044F4807442EA0313314344F001049DB21D
:1039400001810483058470BD038B23F070031B0485
:103950001B0C194301837047038B23F4E0431B04C2
:103960001B0C43EA012189B201837047838B23F04A
:1039700070031B041B0C194381837047838B23F452
:10398000E0431B041B0C43EA012189B28183704789
:10399000038819B19BB243F0800303E023F0800356
:1039A0001B041B0C03807047838819B19BB243F042
:1039B000040303E023F004031B041B0C8380704703
:1039C000838819B19BB243F0080303E023F0080396
:1039D0001B041B0C83807047838819B19BB243F092
:1039E000010303E023F001031B041B0C83807047D9
:1039F000038B23F008031B041B0C1943018370473E
:103A0000038B23F400631B041B0C43EA012189B2DE
:103A100001837047838B23F008031B041B0C19439D
:103A200081837047838B23F400631B041B0C43EAE0
:103A3000012189B281837047038B23F004031B04A7
:103A40001B0C194301837047038B23F480631B0411
:103A50001B0C43EA012189B201837047838B23F059
:103A600004031B041B0C194381837047838B23F4CD
:103A700080631B041B0C43EA012189B281837047D8
:103A8000038B23F080031B041B0C19430183704735
:103A9000038BC3F30E0343EA012189B2018370470C
:103AA000838B23F080031B041B0C19438183704715
:103AB000838BC3F30E0343EA012189B281837047EC
:103AC000038C23F002031B041B0C19430184704771
:103AD000038C23F008031B041B0C1943018470475B
:103AE000038C23F020031B041B0C43EA011189B251
:103AF00001847047038C23F080031B041B0C43EAF2
:103B0000011189B201847047038C23F400731B04F4
:103B10001B0C43EA012189B201847047038C23F412
:103B200000631B041B0C43EA012189B20184704726
:103B3000038C23F400531B041B0C43EA013189B2AC
:103B40000184704730B5048C8A40A5B201248C40B2
:103B500025EA04040484038C13439BB2038430BD20
:103B600030B5048C8A40A5B204248C4025EA0404B4
:103B70000484038C13439BB2038430BD30B5048CA2
:103B800000F11803A5B201248C4025EA0404048442
:103B900021F0080030B94908C85820F07000C8501A
:103BA000C85809E00439C1F34E01C858120220F484
:103BB000E040C850C85892B20243CA5030BD038892
:103BC00019B19BB243F0020303E023F002031B048C
:103BD0001B0C03807047038819B19BB243F00403A8
:103BE00003E023F004031B041B0C0380704783884D
:103BF00019B19BB243F0800303E023F080031B0460
:103C00001B0C83807047038823F008031B041B0CE4
:103C1000038003889BB2194301807047838823F097
:103C200070031B041B0C838083889BB21943818023
:103C30007047038923F007031B041B0C03810389CE
:103C40009BB2194301817047038923F080031B0451
:103C50001B0C038103899BB2194301817047818446
:103C600070478185704781867047018770478187DB
:103C70007047A0F840107047038B23F00C031B041F
:103C80001B0C0383038B9BB2194301837047038B87
:103C900023F440631B041B0C0383038B9BB243EA96
:103CA000012189B201837047F8B50C464988A28882
:103CB0000029B4F800E00CBF02260026012A0CBF40
:103CC000022701272389BEF1000F0ED1FFF7C2FAA8
:103CD000E188FFF7D1FF314623893A46FFF7EEFA34
:103CE000E188BDE8F840FFF7D2BFFFF7E7FAE188C7
:103CF000FFF7CDFF314623893A46FFF7ABFAE1885B
:103D0000BDE8F840FFF7B8BF838B23F00C031B041A
:103D10001B0C8383838B9BB2194381837047838BF6
:103D200023F440631B041B0C8383838B9BB243EA05
:103D3000012189B281837047F8B50E880D460B8941
:103D40008A880446498836B9FFF784FAE988BDE8CD
:103D5000F840FFF791BF042E06D1FFF7AFFAE988CC
:103D6000BDE8F840FFF793BF082EEF88008C39D1EB
:103D700020F480700004000C2084A68B208CB6B246
:103D800026F0F30646EA03139BB21A43354B80B282
:103D90009C4212D003F500639C420ED0B4F1804FD8
:103DA0000BD0A3F598339C4207D003F580639C4267
:103DB00003D003F580639C4207D120F4007040EAF1
:103DC000012080B240F4807004E020F4206341F4CC
:103DD00080701843A283394620842046BDE8F8400D
:103DE000FFF792BF20F480500004000C2084A68BC3
:103DF000B4F820E026F440752D052D0D45EA022586
:103E0000184A45EA033394421FFA8EFE9BB212D041
:103E100002F5006294420ED0B4F1804F0BD0A2F5AF
:103E20009832944207D002F58062944203D002F5A2
:103E30008062944207D12EF4005040EA013080B2F3
:103E400040F4805006E047F6FF5241F480500EEAFD
:103E500002021043A383394620842046BDE8F8407F
:103E6000FFF75DBF002C0140038823F440731B045F
:103E70001B0C038003889BB2194301807047808E1E
:103E800080B27047008F80B27047808F80B27047D9
:103E9000B0F8400080B27047808C80B27047008DCF
:103EA00080B27047038A194214BF01200020704776
:103EB000C94389B201827047038A828911EA0300EB
:103EC00092B203D0114214BF012000207047C943B1
:103ED00089B20182704700BF064B074900221A6071
:103EE0005A609A60DA605A629A62DA629963DA63B7
:103EF000704700BF00800140FF07C0004368816831
:103F000010B51943C368084C194303686268194324
:103F10000369194322F4FD4323F07F03027D0B4321
:103F20001343636010BD00BF008001400023037590
:103F3000036043608360C36003617047014B186096
:103F4000704700BFA0003042044B1A6822F0030201
:103F50001A601A6810431860704700BF0080014063
:103F6000024B186800F00300704700BF008001405A
:103F7000044BDA6B09B1104301E022EA0000D86378
:103F8000704700BF00800140014B1860704700BFC0
:103F90008C0530420368094A10B593608168446813
:103FA000D3680C43C16823F4FF630C43016923F019
:103FB000070321430B43D36010BD00BF00800140C5
:103FC0000023036043608360C36003617047024B5A
:103FD0001869C0B2704700BF0080014082B0002362
:103FE0000193034B03440193019B186802B070478F
:103FF000148001400368094910B54B6243688B6225
:10400000CB6A846823F0F702C3681C4303694069E4
:10401000234303431343CB6210BD00BF0080014024
:104020004FF0FF330360002343608360C36003618C
:1040300043617047014B186B704700BF008001401F
:10404000014BD3F88000704700800140014BC3F85A
:104050008000704700800140014B986C704700BFA2
:1040600000800140014B1860704700BFA00530423E
:10407000014B1860704700BFA4053042014B186027
:10408000704700BFA8053042014B1860704700BF61
:10409000AC053042014B1860704700BFAC013042A4
:1040A000014B1860704700BFB001304200F00100C2
:1040B000024B80F001001860704700BFB40130422D
:1040C000014B1860704700BFB8013042014B986344
:1040D000704700BF00800140034B5B6B034214BF7D
:1040E00001200020704700BF00800140FFF7F4BFAF
:1040F000014B9863704700BF0080014008B5012163
:104100004FF40060FEF716FDBDE8084000214FF4B3
:104110000060FEF70FBD034A536823F4C0731843D1
:1041200050607047002C004082B0084A0023019381
:10413000536800F07F0023F07F030193019B03434A
:104140000193019B536002B0704700BF002C0040F8
:10415000014B01221A607047A4800542024B00F017
:104160007F001860704700BF002C0040024B40F0F9
:1041700080001860704700BF002C0040014B986819
:10418000C0B27047002C0040014B00229A6070477B
:10419000002C0040014B1868000C7047002004E020
:1041A000024B1868C0F30B00704700BF002004E00A
:1041B000044B5A6809B1104301E022EA000058603C
:1041C000704700BF002004E040F0BF60024B40F4A5
:1041D0000030D860704700BF00ED00E0C27810B535
:1041E00003780AB3164A03F16043D1684278C943A1
:1041F000C1F30221C1F1040402FA04F40F22CA40FF
:10420000817803F561430A4022431201D2B283F858
:10421000002303780122590903F01F0302FA03F374
:10422000084A42F8213010BD5A09012103F01F034A
:1042300001FA03F30349203241F8223010BD00BFD8
:1042400000ED00E000E100E021F0604121F07F019D
:10425000014B08439860704700ED00E0044B1A6979
:1042600009B1104301E022EA00001861704700BF65
:1042700000ED00E0044B04281A680CBF42F0040271
:1042800022F004021A60704710E000E00079FCF7A9
:10429000B9B82DE9F047574C90F82880237881462B
:1042A00043451CBF01236370B8F1010F73D18769C7
:1042B0000021384601F04EFC002830D139463846FE
:1042C00001F0B4FA4FF07E5101F0A8F939460546E5
:1042D000384601F0A3F90146284601F05BFB65680A
:1042E0008246294601F09AF90146284601F052FB20
:1042F00000F028FE0DF070FB01F03AF95146064639
:10430000284601F089F90146284601F043FB00F0F8
:1043100019FE0DF061FB01F02BF9054601E00025C7
:104320002E46D9F820303449A360E36023616361ED
:10433000304601F037FC30B93049304601F014FC0A
:1043400010B12E4E00E02C4E2B49284601F02AFCDD
:1043500030B92A49284601F007FC10B1274D00E08A
:10436000254D0021384601F01DFC48B1A0693146B9
:1043700003685B699847E069294603685B6908E060
:10438000A069294603685B6998473146E06903687C
:104390005B6998472AE0B8F1020F12D1A069184969
:1043A00003685B699847E069154903685B6998474A
:1043B000D9F8203003F10042A360E260226163611A
:1043C00014E0B8F1030F11D1A0690E4903685B69CD
:1043D0009847E0690B4903685B699847D9F8203032
:1043E00003F10042A360E2602361626184F800800F
:1043F000BDE8F087C000002000007041000070C1DF
:10440000000034420000B44238B540F225510F4854
:10441000FEF7F8FE40B10E4C236A626A03F2FF1306
:10442000C3F30803934204D1BDE838400748FEF7C0
:1044300070BE0648656AFEF76CFE04EB45052885EC
:10444000636A0133C3F30803636238BD0038014077
:10445000C000002008B50420FDF7E4F940B1054B89
:10446000012283F828240420BDE80840FDF7E8B9BC
:1044700008BD00BFC000002000B5A7B00B46024633
:10448000084968460FF068F9694607480BF086FB53
:10449000FBF7D6FF6420FCF743F903480BF0A4FCBC
:1044A000F6E700BFFC5B0108EC04002038B50368A8
:1044B0000546012B02D0022B0ED015E041F69023C9
:1044C00003614FF4FA6343613C200CF07DFF294601
:1044D000044600F0DFF809E02C200CF075FF2946B7
:1044E000044600F0C9F901E0002038BD204638BD7F
:1044F000FFE720460CF04CFC0CF0DEFF014A416067
:104500000260704764480108704710B504460CF01B
:104510003FFC204610BD00BF10B50446084601F020
:104520004BFBA06010BD08B5806801F02BF908BDF9
:1045300043685868704710B50446034B0360FFF7A3
:10454000E3FF204610BD00BF9C48010810B504469B
:10455000FFF7F1FF20460CF01BFC204610BDF0B524
:10456000436891B09A690446ADF800201822D869D2
:104570008DF80320694603228DF80220FDF757FECF
:104580004EF65F23ADF808301723ADF804306368AA
:104590000025986801A9ADF80A50ADF80650FEF75D
:1045A000ADFF04A8FFF70CF96023ADF8103001232C
:1045B000ADF812306368ADF81650DA68ADF81850EF
:1045C000013A032A61D8DFE802F0020C162004A9A0
:1045D0009868FEF7DDFF636808219868FFF708FA1E
:1045E0001CE004A99868FFF717F863680821986829
:1045F000FFF706FA12E004A99868FFF751F863681C
:1046000008219868FFF706FA08E0986804A9FFF700
:1046100089F8636808219868FFF704FA6368012144
:104620009868FFF7B5F9636801219868FFF7EFF81C
:104630006368174F01219868FFF7DDF897E80F00CE
:1046400008AE0CAD103786E80F0097E80F0085E83C
:104650000F0004F12C03324603CAAA4218605960C5
:10466000164603F10803F6D110683C34186010AA0E
:104670002B4603CB9342206061601D4604F1080481
:10468000F6D118682060012000E0002011B0F0BDD4
:10469000BC48010810B50446FFF730FF014B204627
:1046A000236010BD9C4801088369C1604361FEE737
:1046B0004B6810B558691B690C461A1A8B6853432E
:1046C000B42293FBF2F3184401F05CF80146204653
:1046D000FFF7EAFF000000008160704780687047C4
:1046E00043685868704710B50446034B0360FFF7F2
:1046F0000BFF204610BD00BFF848010810B5044666
:10470000FFF7F1FF20460CF043FB204610BD70B5CB
:104710000446436888B01A6A03251026586A694619
:10472000ADF800208DF803608DF80250FDF77FFD95
:10473000636869461A6B586BADF800208DF803600A
:104740008DF80250FDF773FD636814269A6AD86AE3
:104750006946ADF800208DF802508DF80360FDF732
:1047600066FD636869469A6BD86BADF800208DF8DA
:1047700002508DF80360FDF75AFD636869461A6CB4
:10478000586CADF8002018228DF803208DF80250E7
:10479000FDF74DFD636800259868364B01A99842E6
:1047A0000CBF47F27E0343F63F03ADF80450ADF86B
:1047B0000830ADF80A50ADF80650FEF79FFE04A889
:1047C000FEF7FEFF6023ADF810300123ADF8123084
:1047D0006368ADF81650DA68ADF81850013A032A4C
:1047E00044D8DFE802F0020C162004A99868FEF70E
:1047F000CFFE636808219868FFF7FAF81CE004A967
:104800009868FEF709FF636808219868FFF7F8F8D1
:1048100012E004A99868FEF743FF636808219868CE
:10482000FFF7F8F808E0986804A9FEF77BFF6368D3
:1048300008219868FFF7F6F8636801219868FFF788
:10484000A7F8636801219868FEF7E1FF636801211A
:104850009868FEF7D0FF63680120B3F84820227300
:104860001B6E0022A2626262236100E0002008B099
:1048700070BD00BF002C014010B50446FFF73EFE9E
:10488000014B2046236010BDF8480108354A38B571
:1048900091420546436806DB43F63F048C42A8BFBD
:1048A0000C46F4B100E01446198DD86AFDF72BFDD3
:1048B0006B68198FD86BFDF726FD002C05DD6B6842
:1048C000198C586AFDF71FFD19E046D06B68198CEA
:1048D000586AFDF71AFD6B68198E586BFDF713FDCA
:1048E00012E0198DD86AFDF70EFD6B68198FD86B31
:1048F000FDF709FD6B68198C586AFDF706FD6B68BA
:10490000198E586BFDF701FD6A6817499368D268E4
:104910008B4202F1FF3208BF6400032A1FD8DFE890
:1049200002F002080E14002CB8BF6442A4B29C86A8
:1049300011E0002CB8BF6442A4B21C870BE0002C2D
:10494000B8BF6442A4B29C8705E0002CB8BF6442A3
:10495000A4B2A3F84040012038BD204638BD002055
:1049600038BD00BFC1C7FFFF002C01400173704775
:1049700070B51D4B07221D4D1A7000230A7B2B704A
:104980001B4B4FF400711A70044601221948FDF7C1
:1049900026FE01211748FDF7F5FD01211548FDF719
:1049A000D9FDFBF7D9FE06462B78062B09D8FBF775
:1049B000D3FE801BB0F5FA6FF6D34FF6FF720023DB
:1049C0000BE00D4882784378057811021B04C27809
:1049D00043EA056313430B430A432280064A2046F9
:1049E00012796360A27070BDD90C0020E20C002027
:1049F000E10C002000540040DA0C00202DE9F843BF
:104A000004469046806800F007FE4146074600F0E5
:104A10000DFFA16A00F002FE6668A062F56D814696
:104A2000294601F0BFF830B905F10045294648464E
:104A300001F09AF800B1A562A16A706D00F0F6FE6F
:104A4000656A316D8146284600F0F0FE0146484611
:104A500000F0E4FD29468146384600F0DDFD414680
:104A600000F098FFB16D00F0E1FE0146484600F00D
:104A7000D5FD6762BDE8F8832DE9F7430746884610
:104A800016463BB36846FFF773FF019800F048FAFB
:104A90001BA3D3E9002300F0A9FA00F069FDD8F8C0
:104AA000101000F0C3FED8F80430044616495868C8
:104AB0009DF80250BDF800900EF087FE08B104F199
:104AC0000044324621464046FFF798FF01F074F853
:104AD000064603E01D4699461E460C4C31464046AC
:104AE000FFF7D4FEC7F800907D60304600F04AFE24
:104AF000B8603846FC6003B0BDE8F083AFF30080D7
:104B00001C7147702F8BA83F415B0108000080BFDC
:104B100000220260704710B580E80E00029BC3605F
:104B200010BD8362009B0162C362019B426203630A
:104B3000029B4363039B8363049BC363059B0364E2
:104B4000069B436470478365009B01654265C365AE
:104B50007047000010B50B6802680C4CA34207DDDB
:104B600003F1444303F5CA0303F558530132F5E753
:104B7000002B07DA03F16E5303F5D61303F5206318
:104B8000013AF5E702600B6010BD00BF00CA9A3B16
:104B900002680B6810B5134403604B680146426815
:104BA000134441F8043FFFF7D5FF10BD03680A68BE
:104BB00010B59B1A4A680146036043689B1A41F886
:104BC000043FFFF7C7FF10BDD0B516461F46044689
:104BD000006800F0A5F932463B4600F007FA00F005
:104BE0009FFC2060606800F09BF932463B4600F075
:104BF000FDF900F095FC214641F8040F2046FFF72F
:104C0000A9FF2046D0BD00BF30B50D68044C026836
:104C1000B5FBF4F31A4404FB135302600B6030BD80
:104C200000CA9A3B064A10B591FBF2F3036002FBFF
:104C30001313014641F8043FFFF7E6FF10BD00BF24
:104C400000CA9A3B02680B6810B5134403604B68B6
:104C500001464268134441F8043FFFF7D5FF10BDF9
:104C600003680A6810B59B1A4A68014603604368E6
:104C70009B1A41F8043FFFF7C7FF10BD81F00041C8
:104C800002E000BF83F0004330B54FEA41044FEA31
:104C9000430594EA050F08BF90EA020F1FBF54EACC
:104CA000000C55EA020C7FEA645C7FEA655C00F068
:104CB000E2804FEA5454D4EB5555B8BF6D420CDD39
:104CC0002C4480EA020281EA030382EA000083EABC
:104CD000010180EA020281EA0303362D88BF30BD5C
:104CE00011F0004F4FEA01314FF4801C4CEA1131B2
:104CF00002D0404261EB410113F0004F4FEA033311
:104D00004CEA133302D0524263EB430394EA050F9B
:104D100000F0A780A4F10104D5F1200E0DDB02FA0A
:104D20000EFC22FA05F2801841F1000103FA0EF29E
:104D3000801843FA05F359410EE0A5F120050EF164
:104D4000200E012A03FA0EFC28BF4CF0020C43FA95
:104D500005F3C01851EBE37101F0004507D54FF0A2
:104D6000000EDCF1000C7EEB00006EEB0101B1F5F2
:104D7000801F1BD3B1F5001F0CD349085FEA300038
:104D80004FEA3C0C04F101044FEA445212F5800F43
:104D900080F09A80BCF1004F08BF5FEA500C50F1E0
:104DA000000041EB045141EA050130BD5FEA4C0CC3
:104DB000404141EB010111F4801FA4F10104E9D14C
:104DC00091F0000F04BF01460020B1FA81F308BF43
:104DD0002033A3F10B03B3F120020CDA0C3208DD0F
:104DE00002F1140CC2F10C0201FA0CF021FA02F1EA
:104DF0000CE002F11402D8BFC2F1200C01FA02F15A
:104E000020FA0CFCDCBF41EA0C019040E41AA2BF7E
:104E100001EB0451294330BD6FEA04041F3C1CDA46
:104E20000C340EDC04F11404C4F1200220FA04F066
:104E300001FA02F340EA030021FA04F345EA030110
:104E400030BDC4F10C04C4F1200220FA02F001FAD2
:104E500004F340EA0300294630BD21FA04F0294654
:104E600030BD94F0000F83F4801306BF81F48011ED
:104E70000134013D4EE77FEA645C18BF7FEA655C60
:104E800029D094EA050F08BF90EA020F05D054EA32
:104E9000000C04BF1946104630BD91EA030F1EBF37
:104EA0000021002030BD5FEA545C05D1400049413B
:104EB00028BF41F0004130BD14F580043CBF01F52E
:104EC000801130BD01F0004545F0FE4141F4700114
:104ED0004FF0000030BD7FEA645C1ABF19461046EF
:104EE0007FEA655C1CBF0B46024650EA013406BFF0
:104EF00052EA033591EA030F41F4002130BD00BFAF
:104F000090F0000F04BF0021704730B54FF480646B
:104F100004F132044FF000054FF0000150E700BFEC
:104F200090F0000F04BF0021704730B54FF480644B
:104F300004F1320410F0004548BF40424FF0000138
:104F40003EE700BF42004FEAE2014FEA31014FEA7B
:104F500002701FBF12F07F4393F07F4F81F06051CA
:104F6000704792F0000F14BF93F07F4F704730B539
:104F70004FF4607401F0004521F0004120E700BFCC
:104F800050EA010208BF704730B54FF000050AE053
:104F900050EA010208BF704730B511F0004502D554
:104FA000404261EB41014FF4806404F132045FEA56
:104FB000915C3FF4DCAE4FF003025FEADC0C18BFFB
:104FC00003325FEADC0C18BF033202EBDC02C2F1F1
:104FD000200300FA03FC20FA02F001FA03FE40EA83
:104FE0000E0021FA02F11444C1E600BF70B54FF083
:104FF000FF0C4CF4E06C1CEA11541DBF1CEA135565
:1050000094EA0C0F95EA0C0F00F0DEF82C4481EACC
:10501000030621EA4C5123EA4C5350EA013518BFEC
:1050200052EA033541F4801143F4801338D0A0FBD9
:1050300002CE4FF00005E1FB02E506F00042E0FB86
:1050400003E54FF00006E1FB03569CF0000F18BF8C
:105050004EF0010EA4F1FF04B6F5007F64F5407434
:1050600004D25FEA4E0E6D4146EB060642EAC621C7
:1050700041EA55514FEAC52040EA5E504FEACE2E34
:10508000B4F1FD0C88BFBCF5E06F1ED8BEF1004F37
:1050900008BF5FEA500E50F1000041EB045170BDB3
:1050A00006F0004646EA010140EA020081EA0301F7
:1050B000B4EB5C04C2BFD4EB0C0541EA045170BDF3
:1050C00041F480114FF0000E013C00F3AB8014F16D
:1050D000360FDEBF002001F0004170BDC4F10004B6
:1050E000203C35DA0C341BDC04F11404C4F1200537
:1050F00000FA05F320FA04F001FA05F240EA020092
:1051000001F0004221F0004110EBD37021FA04F6C7
:1051100042EB06015EEA430E08BF20EAD37070BD81
:10512000C4F10C04C4F1200500FA04F320FA05F0E0
:1051300001FA04F240EA020001F0004110EBD370E2
:1051400041F100015EEA430E08BF20EAD37070BD52
:10515000C4F1200500FA05F24EEA020E20FA04F32B
:1051600001FA05F243EA020321FA04F001F00041DA
:1051700021FA04F220EA020000EBD3705EEA430E4B
:1051800008BF20EAD37070BD94F0000F0FD101F07A
:105190000046400041EB010111F4801F08BF013CB3
:1051A000F7D041EA060195F0000F18BF704703F0F1
:1051B0000046520043EB030313F4801F08BF013D78
:1051C000F7D043EA0603704794EA0C0F0CEA135534
:1051D00018BF95EA0C0F0CD050EA410618BF52EAEE
:1051E0004306D1D181EA030101F000414FF00000F4
:1051F00070BD50EA410606BF1046194652EA430602
:1052000019D094EA0C0F02D150EA013613D195EA75
:105210000C0F05D152EA03361CBF104619460AD1BD
:1052200081EA030101F0004141F0FE4141F47001C7
:105230004FF0000070BD41F0FE4141F4780170BDB7
:1052400070B54FF0FF0C4CF4E06C1CEA11541DBF1C
:105250001CEA135594EA0C0F95EA0C0F00F0A7F81E
:10526000A4EB050481EA030E52EA03354FEA01314B
:1052700000F088804FEA03334FF0805545EA13135E
:1052800043EA12634FEA022245EA111545EA106526
:105290004FEA00260EF000419D4208BF964244F1BD
:1052A000FD0404F5407402D25B084FEA3202B61ADC
:1052B00065EB03055B084FEA32024FF480104FF4B0
:1052C000002CB6EB020E75EB030E22BFB61A754624
:1052D00040EA0C005B084FEA3202B6EB020E75EBB7
:1052E000030E22BFB61A754640EA5C005B084FEA1F
:1052F0003202B6EB020E75EB030E22BFB61A7546EC
:1053000040EA9C005B084FEA3202B6EB020E75EBF6
:10531000030E22BFB61A754640EADC0055EA060EB7
:1053200018D04FEA051545EA16754FEA06164FEAFA
:10533000C30343EA52734FEAC2025FEA1C1CC0D1A6
:1053400011F4801F0BD141EA00014FF000004FF033
:10535000004CB6E711F4801F04BF01430020B4F1F4
:10536000FD0C88BFBCF5E06F3FF6AFAEB5EB030CAC
:1053700004BFB6EB020C5FEA500C50F1000041EBA9
:10538000045170BD0EF0004E4EEA113114EB5C0476
:10539000C2BFD4EB0C0541EA045170BD41F4801149
:1053A0004FF0000E013C90E645EA060E8DE60CEA51
:1053B000135594EA0C0F08BF95EA0C0F3FF43BAF6E
:1053C00094EA0C0F0AD150EA01347FF434AF95EA25
:1053D0000C0F7FF425AF104619462CE795EA0C0F09
:1053E00006D152EA03353FF4FDAE1046194622E7D6
:1053F00050EA410618BF52EA43067FF4C5AE50EAB0
:1054000041047FF40DAF52EA43057FF4EBAE12E79F
:105410004FF0FF3C06E000BF4FF0010C02E000BF80
:105420004FF0010C4DF804CD4FEA410C7FEA6C5C63
:105430004FEA430C18BF7FEA6C5C1BD001B050EA06
:10544000410C0CBF52EA430C91EA030F02BF90EAF1
:10545000020F0020704710F1000F91EA030F58BFB0
:10546000994208BF90422CBFD8176FEAE37040F012
:10547000010070474FEA410C7FEA6C5C02D150EAB0
:10548000013C07D14FEA430C7FEA6C5CD6D152EA6B
:10549000033CD3D05DF8040B704700BF8446104630
:1054A00062468C461946634600E000BF01B5FFF72F
:1054B000B7FF002848BF10F1000F01BD4DF808EDFF
:1054C000FFF7F4FF0CBF012000205DF808FB00BFD0
:1054D0004DF808EDFFF7EAFF34BF012000205DF82A
:1054E00008FB00BF4DF808EDFFF7E0FF94BF012077
:1054F00000205DF808FB00BF4DF808EDFFF7CEFF78
:1055000094BF012000205DF808FB00BF4DF808EDB6
:10551000FFF7C4FF34BF012000205DF808FB00BF87
:105520004FEA410212F5001215D211D56FF47873CB
:10553000B3EB625212D94FEAC12343F0004343EA6E
:10554000505311F0004F23FA02F018BF4042704749
:105550004FF00000704750EA013005D111F00040D3
:1055600008BF6FF0004070474FF00000704700BF69
:105570004FEA4102B2F1E04324BFB3F5001CDCF175
:10558000FE5C0DD901F0004C4FEAC0024CEA5070AD
:10559000B2F1004F40EB830008BF20F001007047DC
:1055A00011F0804F21D113F13872BCBF01F00040DF
:1055B000704741F480114FEA5252C2F11802C2F111
:1055C000200C10FA0CF320FA02F018BF40F0010092
:1055D0004FEAC1234FEAD32303FA0CFC40EA0C0044
:1055E00023FA02F34FEA4303CCE77FEA625307D181
:1055F00050EA01331EBF4FF0FE4040F440007047B8
:1056000001F0004040F0FE4040F40000704700BF51
:1056100080F0004002E000BF81F0004142001FBF67
:105620005FEA410392EA030F7FEA226C7FEA236C70
:105630006AD04FEA1262D2EB1363C1BFD218414065
:1056400048404140B8BF5B42192B88BF704710F0FB
:10565000004F40F4000020F07F4018BF404211F09E
:10566000004F41F4000121F07F4118BF494292EA06
:10567000030F3FD0A2F1010241FA03FC10EB0C0032
:10568000C3F1200301FA03F100F0004302D54942BF
:1056900060EB4000B0F5000F13D3B0F1807F06D36C
:1056A00040084FEA310102F10102FE2A51D2B1F164
:1056B000004F40EBC25008BF20F0010040EA030059
:1056C0007047490040EB000010F4000FA2F1010206
:1056D000EDD1B0FA80FCACF1080CB2EB0C0200FA90
:1056E0000CF0AABF00EBC25052421843BCBFD040DE
:1056F0001843704792F0000F81F4000106BF80F458
:1057000000000132013BB5E74FEA41037FEA226C1A
:1057100018BF7FEA236C21D092EA030F04D092F0E5
:10572000000F08BF0846704790EA010F1CBF002019
:10573000704712F07F4F04D1400028BF40F0004076
:10574000704712F100723CBF00F50000704700F096
:10575000004343F0FE4040F4000070477FEA2262BD
:1057600016BF08467FEA23630146420206BF5FEA8E
:10577000412390EA010F40F4800070474FF000038E
:1057800004E000BF10F0004348BF40425FEA000C55
:1057900008BF704743F0964301464FF000001CE0FD
:1057A00050EA010208BF70474FF000030AE000BF53
:1057B00050EA010208BF704711F0004302D5404291
:1057C00061EB41015FEA010C02BF84460146002003
:1057D00043F0B64308BFA3F18053A3F50003BCFA1E
:1057E0008CF2083AA3EBC25310DB01FA02FC6344CB
:1057F00000FA02FCC2F12002BCF1004F20FA02F2D2
:1058000043EB020008BF20F00100704702F12002C4
:1058100001FA02FCC2F1200250EA4C0021FA02F225
:1058200043EB020008BF20EADC7070474FF0FF0C2A
:105830001CEAD0521EBF1CEAD15392EA0C0F93EA25
:105840000C0F6FD01A4480EA010C400218BF5FEAC7
:1058500041211ED04FF0006343EA501043EA51113A
:10586000A0FB01310CF00040B1F5000F3EBF490034
:1058700041EAD3715B0040EA010062F17F02FD2A38
:105880001DD8B3F1004F40EBC25008BF20F001001B
:10589000704790F0000F0CF0004C08BF49024CEA32
:1058A000502040EA51207F3AC2BFD2F1FF0340EAC4
:1058B000C250704740F400004FF00003013A5DDC35
:1058C00012F1190FDCBF00F000407047C2F1000276
:1058D000410021FA02F1C2F1200200FA02FC5FEA63
:1058E000310040F1000053EA4C0308BF20EADC70AD
:1058F000704792F0000F00F0004C02BF400010F41F
:10590000000F013AF9D040EA0C0093F0000F01F0CB
:10591000004C02BF490011F4000F013BF9D041EAED
:105920000C018FE70CEAD15392EA0C0F18BF93EAEF
:105930000C0F0AD030F0004C18BF31F0004CD8D119
:1059400080EA010000F00040704790F0000F17BFA0
:1059500090F0004F084691F0000F91F0004F14D0E6
:1059600092EA0C0F01D142020FD193EA0C0F03D13E
:105970004B0218BF084608D180EA010000F0004041
:1059800040F0FE4040F40000704740F0FE4040F41C
:10599000400070474FF0FF0C1CEAD0521EBF1CEABB
:1059A000D15392EA0C0F93EA0C0F69D0A2EB0302D9
:1059B00080EA010C49024FEA402037D04FF0805373
:1059C00043EA111143EA10130CF000408B4238BF38
:1059D0005B0042F17D024FF4000C8B4224BF5B1A46
:1059E00040EA0C00B3EB510F24BFA3EB510340EA94
:1059F0005C00B3EB910F24BFA3EB910340EA9C0042
:105A0000B3EBD10F24BFA3EBD10340EADC001B01B1
:105A100018BF5FEA1C1CE0D1FD2A3FF650AF8B4255
:105A200040EBC25008BF20F0010070470CF0004C62
:105A30004CEA50207F32C2BFD2F1FF0340EAC2508D
:105A4000704740F400004FF00003013A37E792F04E
:105A5000000F00F0004C02BF400010F4000F013AAC
:105A6000F9D040EA0C0093F0000F01F0004C02BFA7
:105A7000490011F4000F013BF9D041EA0C0195E710
:105A80000CEAD15392EA0C0F08D142027FF47DAFA9
:105A900093EA0C0F7FF470AF084676E793EA0C0F99
:105AA00004D14B023FF44CAF08466EE730F0004C97
:105AB00018BF31F0004CCAD130F000427FF45CAF27
:105AC00031F000437FF43CAF5FE700BF4FF0FF3C95
:105AD00006E000BF4FF0010C02E000BF4FF0010CE8
